{
  "_format": "hh3-artifact-1",
  "contractName": "X0TToken",
  "sourceName": "contracts/X0TToken.sol",
  "abi": [
    {
      "inputs": [],
      "stateMutability": "nonpayable",
      "type": "constructor"
    },
    {
      "inputs": [],
      "name": "ECDSAInvalidSignature",
      "type": "error"
    },
    {
      "inputs": [
        {
          "internalType": "uint256",
          "name": "length",
          "type": "uint256"
        }
      ],
      "name": "ECDSAInvalidSignatureLength",
      "type": "error"
    },
    {
      "inputs": [
        {
          "internalType": "bytes32",
          "name": "s",
          "type": "bytes32"
        }
      ],
      "name": "ECDSAInvalidSignatureS",
      "type": "error"
    },
    {
      "inputs": [
        {
          "internalType": "address",
          "name": "spender",
          "type": "address"
        },
        {
          "internalType": "uint256",
          "name": "allowance",
          "type": "uint256"
        },
        {
          "internalType": "uint256",
          "name": "needed",
          "type": "uint256"
        }
      ],
      "name": "ERC20InsufficientAllowance",
      "type": "error"
    },
    {
      "inputs": [
        {
          "internalType": "address",
          "name": "sender",
          "type": "address"
        },
        {
          "internalType": "uint256",
          "name": "balance",
          "type": "uint256"
        },
        {
          "internalType": "uint256",
          "name": "needed",
          "type": "uint256"
        }
      ],
      "name": "ERC20InsufficientBalance",
      "type": "error"
    },
    {
      "inputs": [
        {
          "internalType": "address",
          "name": "approver",
          "type": "address"
        }
      ],
      "name": "ERC20InvalidApprover",
      "type": "error"
    },
    {
      "inputs": [
        {
          "internalType": "address",
          "name": "receiver",
          "type": "address"
        }
      ],
      "name": "ERC20InvalidReceiver",
      "type": "error"
    },
    {
      "inputs": [
        {
          "internalType": "address",
          "name": "sender",
          "type": "address"
        }
      ],
      "name": "ERC20InvalidSender",
      "type": "error"
    },
    {
      "inputs": [
        {
          "internalType": "address",
          "name": "spender",
          "type": "address"
        }
      ],
      "name": "ERC20InvalidSpender",
      "type": "error"
    },
    {
      "inputs": [
        {
          "internalType": "uint256",
          "name": "deadline",
          "type": "uint256"
        }
      ],
      "name": "ERC2612ExpiredSignature",
      "type": "error"
    },
    {
      "inputs": [
        {
          "internalType": "address",
          "name": "signer",
          "type": "address"
        },
        {
          "internalType": "address",
          "name": "owner",
          "type": "address"
        }
      ],
      "name": "ERC2612InvalidSigner",
      "type": "error"
    },
    {
      "inputs": [
        {
          "internalType": "address",
          "name": "account",
          "type": "address"
        },
        {
          "internalType": "uint256",
          "name": "currentNonce",
          "type": "uint256"
        }
      ],
      "name": "InvalidAccountNonce",
      "type": "error"
    },
    {
      "inputs": [],
      "name": "InvalidShortString",
      "type": "error"
    },
    {
      "inputs": [
        {
          "internalType": "address",
          "name": "owner",
          "type": "address"
        }
      ],
      "name": "OwnableInvalidOwner",
      "type": "error"
    },
    {
      "inputs": [
        {
          "internalType": "address",
          "name": "account",
          "type": "address"
        }
      ],
      "name": "OwnableUnauthorizedAccount",
      "type": "error"
    },
    {
      "inputs": [],
      "name": "ReentrancyGuardReentrantCall",
      "type": "error"
    },
    {
      "inputs": [
        {
          "internalType": "string",
          "name": "str",
          "type": "string"
        }
      ],
      "name": "StringTooLong",
      "type": "error"
    },
    {
      "anonymous": false,
      "inputs": [
        {
          "indexed": true,
          "internalType": "address",
          "name": "owner",
          "type": "address"
        },
        {
          "indexed": true,
          "internalType": "address",
          "name": "spender",
          "type": "address"
        },
        {
          "indexed": false,
          "internalType": "uint256",
          "name": "value",
          "type": "uint256"
        }
      ],
      "name": "Approval",
      "type": "event"
    },
    {
      "anonymous": false,
      "inputs": [],
      "name": "EIP712DomainChanged",
      "type": "event"
    },
    {
      "anonymous": false,
      "inputs": [
        {
          "indexed": true,
          "internalType": "uint256",
          "name": "epoch",
          "type": "uint256"
        },
        {
          "indexed": false,
          "internalType": "uint256",
          "name": "totalRewards",
          "type": "uint256"
        },
        {
          "indexed": false,
          "internalType": "uint256",
          "name": "recipientCount",
          "type": "uint256"
        }
      ],
      "name": "EpochRewardsDistributed",
      "type": "event"
    },
    {
      "anonymous": false,
      "inputs": [
        {
          "indexed": true,
          "internalType": "address",
          "name": "previousOwner",
          "type": "address"
        },
        {
          "indexed": true,
          "internalType": "address",
          "name": "newOwner",
          "type": "address"
        }
      ],
      "name": "OwnershipTransferred",
      "type": "event"
    },
    {
      "anonymous": false,
      "inputs": [
        {
          "indexed": true,
          "internalType": "address",
          "name": "payer",
          "type": "address"
        },
        {
          "indexed": true,
          "internalType": "address",
          "name": "relayer",
          "type": "address"
        },
        {
          "indexed": false,
          "internalType": "uint256",
          "name": "amount",
          "type": "uint256"
        },
        {
          "indexed": false,
          "internalType": "uint256",
          "name": "feeBurned",
          "type": "uint256"
        }
      ],
      "name": "RelayPaid",
      "type": "event"
    },
    {
      "anonymous": false,
      "inputs": [
        {
          "indexed": true,
          "internalType": "address",
          "name": "relayer",
          "type": "address"
        },
        {
          "indexed": false,
          "internalType": "bool",
          "name": "authorized",
          "type": "bool"
        }
      ],
      "name": "RelayerAuthorized",
      "type": "event"
    },
    {
      "anonymous": false,
      "inputs": [
        {
          "indexed": true,
          "internalType": "address",
          "name": "payer",
          "type": "address"
        },
        {
          "indexed": true,
          "internalType": "address",
          "name": "provider",
          "type": "address"
        },
        {
          "indexed": false,
          "internalType": "uint256",
          "name": "amount",
          "type": "uint256"
        },
        {
          "indexed": false,
          "internalType": "string",
          "name": "resourceType",
          "type": "string"
        }
      ],
      "name": "ResourcePaid",
      "type": "event"
    },
    {
      "anonymous": false,
      "inputs": [
        {
          "indexed": true,
          "internalType": "address",
          "name": "user",
          "type": "address"
        },
        {
          "indexed": false,
          "internalType": "uint256",
          "name": "amount",
          "type": "uint256"
        },
        {
          "indexed": false,
          "internalType": "uint256",
          "name": "totalStaked",
          "type": "uint256"
        }
      ],
      "name": "Staked",
      "type": "event"
    },
    {
      "anonymous": false,
      "inputs": [
        {
          "indexed": true,
          "internalType": "address",
          "name": "from",
          "type": "address"
        },
        {
          "indexed": true,
          "internalType": "address",
          "name": "to",
          "type": "address"
        },
        {
          "indexed": false,
          "internalType": "uint256",
          "name": "value",
          "type": "uint256"
        }
      ],
      "name": "Transfer",
      "type": "event"
    },
    {
      "anonymous": false,
      "inputs": [
        {
          "indexed": true,
          "internalType": "address",
          "name": "user",
          "type": "address"
        },
        {
          "indexed": false,
          "internalType": "uint256",
          "name": "amount",
          "type": "uint256"
        },
        {
          "indexed": false,
          "internalType": "uint256",
          "name": "totalStaked",
          "type": "uint256"
        }
      ],
      "name": "Unstaked",
      "type": "event"
    },
    {
      "inputs": [],
      "name": "DOMAIN_SEPARATOR",
      "outputs": [
        {
          "internalType": "bytes32",
          "name": "",
          "type": "bytes32"
        }
      ],
      "stateMutability": "view",
      "type": "function"
    },
    {
      "inputs": [],
      "name": "EPOCH_DURATION",
      "outputs": [
        {
          "internalType": "uint256",
          "name": "",
          "type": "uint256"
        }
      ],
      "stateMutability": "view",
      "type": "function"
    },
    {
      "inputs": [],
      "name": "FEE_PERCENT",
      "outputs": [
        {
          "internalType": "uint256",
          "name": "",
          "type": "uint256"
        }
      ],
      "stateMutability": "view",
      "type": "function"
    },
    {
      "inputs": [],
      "name": "INITIAL_SUPPLY",
      "outputs": [
        {
          "internalType": "uint256",
          "name": "",
          "type": "uint256"
        }
      ],
      "stateMutability": "view",
      "type": "function"
    },
    {
      "inputs": [],
      "name": "MIN_STAKE",
      "outputs": [
        {
          "internalType": "uint256",
          "name": "",
          "type": "uint256"
        }
      ],
      "stateMutability": "view",
      "type": "function"
    },
    {
      "inputs": [],
      "name": "PRICE_PER_MB_BANDWIDTH",
      "outputs": [
        {
          "internalType": "uint256",
          "name": "",
          "type": "uint256"
        }
      ],
      "stateMutability": "view",
      "type": "function"
    },
    {
      "inputs": [],
      "name": "PRICE_PER_MB_STORAGE",
      "outputs": [
        {
          "internalType": "uint256",
          "name": "",
          "type": "uint256"
        }
      ],
      "stateMutability": "view",
      "type": "function"
    },
    {
      "inputs": [],
      "name": "PRICE_PER_RELAY",
      "outputs": [
        {
          "internalType": "uint256",
          "name": "",
          "type": "uint256"
        }
      ],
      "stateMutability": "view",
      "type": "function"
    },
    {
      "inputs": [],
      "name": "REWARD_POOL_PER_EPOCH",
      "outputs": [
        {
          "internalType": "uint256",
          "name": "",
          "type": "uint256"
        }
      ],
      "stateMutability": "view",
      "type": "function"
    },
    {
      "inputs": [],
      "name": "STAKE_LOCK_PERIOD",
      "outputs": [
        {
          "internalType": "uint256",
          "name": "",
          "type": "uint256"
        }
      ],
      "stateMutability": "view",
      "type": "function"
    },
    {
      "inputs": [
        {
          "internalType": "address",
          "name": "owner",
          "type": "address"
        },
        {
          "internalType": "address",
          "name": "spender",
          "type": "address"
        }
      ],
      "name": "allowance",
      "outputs": [
        {
          "internalType": "uint256",
          "name": "",
          "type": "uint256"
        }
      ],
      "stateMutability": "view",
      "type": "function"
    },
    {
      "inputs": [
        {
          "internalType": "address",
          "name": "spender",
          "type": "address"
        },
        {
          "internalType": "uint256",
          "name": "value",
          "type": "uint256"
        }
      ],
      "name": "approve",
      "outputs": [
        {
          "internalType": "bool",
          "name": "",
          "type": "bool"
        }
      ],
      "stateMutability": "nonpayable",
      "type": "function"
    },
    {
      "inputs": [
        {
          "internalType": "address",
          "name": "",
          "type": "address"
        }
      ],
      "name": "authorizedRelayers",
      "outputs": [
        {
          "internalType": "bool",
          "name": "",
          "type": "bool"
        }
      ],
      "stateMutability": "view",
      "type": "function"
    },
    {
      "inputs": [
        {
          "internalType": "address",
          "name": "account",
          "type": "address"
        }
      ],
      "name": "balanceOf",
      "outputs": [
        {
          "internalType": "uint256",
          "name": "",
          "type": "uint256"
        }
      ],
      "stateMutability": "view",
      "type": "function"
    },
    {
      "inputs": [
        {
          "internalType": "uint256",
          "name": "value",
          "type": "uint256"
        }
      ],
      "name": "burn",
      "outputs": [],
      "stateMutability": "nonpayable",
      "type": "function"
    },
    {
      "inputs": [
        {
          "internalType": "address",
          "name": "account",
          "type": "address"
        },
        {
          "internalType": "uint256",
          "name": "value",
          "type": "uint256"
        }
      ],
      "name": "burnFrom",
      "outputs": [],
      "stateMutability": "nonpayable",
      "type": "function"
    },
    {
      "inputs": [],
      "name": "canDistributeRewards",
      "outputs": [
        {
          "internalType": "bool",
          "name": "",
          "type": "bool"
        }
      ],
      "stateMutability": "view",
      "type": "function"
    },
    {
      "inputs": [],
      "name": "currentEpoch",
      "outputs": [
        {
          "internalType": "uint256",
          "name": "",
          "type": "uint256"
        }
      ],
      "stateMutability": "view",
      "type": "function"
    },
    {
      "inputs": [],
      "name": "decimals",
      "outputs": [
        {
          "internalType": "uint8",
          "name": "",
          "type": "uint8"
        }
      ],
      "stateMutability": "view",
      "type": "function"
    },
    {
      "inputs": [
        {
          "internalType": "address[]",
          "name": "recipients",
          "type": "address[]"
        },
        {
          "internalType": "uint256[]",
          "name": "uptimes",
          "type": "uint256[]"
        }
      ],
      "name": "distributeEpochRewards",
      "outputs": [],
      "stateMutability": "nonpayable",
      "type": "function"
    },
    {
      "inputs": [],
      "name": "eip712Domain",
      "outputs": [
        {
          "internalType": "bytes1",
          "name": "fields",
          "type": "bytes1"
        },
        {
          "internalType": "string",
          "name": "name",
          "type": "string"
        },
        {
          "internalType": "string",
          "name": "version",
          "type": "string"
        },
        {
          "internalType": "uint256",
          "name": "chainId",
          "type": "uint256"
        },
        {
          "internalType": "address",
          "name": "verifyingContract",
          "type": "address"
        },
        {
          "internalType": "bytes32",
          "name": "salt",
          "type": "bytes32"
        },
        {
          "internalType": "uint256[]",
          "name": "extensions",
          "type": "uint256[]"
        }
      ],
      "stateMutability": "view",
      "type": "function"
    },
    {
      "inputs": [
        {
          "internalType": "address",
          "name": "user",
          "type": "address"
        }
      ],
      "name": "getStakeInfo",
      "outputs": [
        {
          "internalType": "uint256",
          "name": "amount",
          "type": "uint256"
        },
        {
          "internalType": "uint256",
          "name": "stakedAt",
          "type": "uint256"
        },
        {
          "internalType": "uint256",
          "name": "lockUntil",
          "type": "uint256"
        },
        {
          "internalType": "bool",
          "name": "canUnstake",
          "type": "bool"
        }
      ],
      "stateMutability": "view",
      "type": "function"
    },
    {
      "inputs": [],
      "name": "getStakerCount",
      "outputs": [
        {
          "internalType": "uint256",
          "name": "",
          "type": "uint256"
        }
      ],
      "stateMutability": "view",
      "type": "function"
    },
    {
      "inputs": [],
      "name": "getStakingRatio",
      "outputs": [
        {
          "internalType": "uint256",
          "name": "",
          "type": "uint256"
        }
      ],
      "stateMutability": "view",
      "type": "function"
    },
    {
      "inputs": [
        {
          "internalType": "address",
          "name": "",
          "type": "address"
        }
      ],
      "name": "isStaker",
      "outputs": [
        {
          "internalType": "bool",
          "name": "",
          "type": "bool"
        }
      ],
      "stateMutability": "view",
      "type": "function"
    },
    {
      "inputs": [],
      "name": "lastEpochTime",
      "outputs": [
        {
          "internalType": "uint256",
          "name": "",
          "type": "uint256"
        }
      ],
      "stateMutability": "view",
      "type": "function"
    },
    {
      "inputs": [],
      "name": "name",
      "outputs": [
        {
          "internalType": "string",
          "name": "",
          "type": "string"
        }
      ],
      "stateMutability": "view",
      "type": "function"
    },
    {
      "inputs": [
        {
          "internalType": "address",
          "name": "owner",
          "type": "address"
        }
      ],
      "name": "nonces",
      "outputs": [
        {
          "internalType": "uint256",
          "name": "",
          "type": "uint256"
        }
      ],
      "stateMutability": "view",
      "type": "function"
    },
    {
      "inputs": [],
      "name": "owner",
      "outputs": [
        {
          "internalType": "address",
          "name": "",
          "type": "address"
        }
      ],
      "stateMutability": "view",
      "type": "function"
    },
    {
      "inputs": [
        {
          "internalType": "address",
          "name": "payer",
          "type": "address"
        },
        {
          "internalType": "uint256",
          "name": "relayCount",
          "type": "uint256"
        }
      ],
      "name": "payForRelay",
      "outputs": [],
      "stateMutability": "nonpayable",
      "type": "function"
    },
    {
      "inputs": [
        {
          "internalType": "address",
          "name": "provider",
          "type": "address"
        },
        {
          "internalType": "uint256",
          "name": "amount",
          "type": "uint256"
        },
        {
          "internalType": "string",
          "name": "resourceType",
          "type": "string"
        }
      ],
      "name": "payForResource",
      "outputs": [],
      "stateMutability": "nonpayable",
      "type": "function"
    },
    {
      "inputs": [
        {
          "internalType": "address",
          "name": "owner",
          "type": "address"
        },
        {
          "internalType": "address",
          "name": "spender",
          "type": "address"
        },
        {
          "internalType": "uint256",
          "name": "value",
          "type": "uint256"
        },
        {
          "internalType": "uint256",
          "name": "deadline",
          "type": "uint256"
        },
        {
          "internalType": "uint8",
          "name": "v",
          "type": "uint8"
        },
        {
          "internalType": "bytes32",
          "name": "r",
          "type": "bytes32"
        },
        {
          "internalType": "bytes32",
          "name": "s",
          "type": "bytes32"
        }
      ],
      "name": "permit",
      "outputs": [],
      "stateMutability": "nonpayable",
      "type": "function"
    },
    {
      "inputs": [],
      "name": "renounceOwnership",
      "outputs": [],
      "stateMutability": "nonpayable",
      "type": "function"
    },
    {
      "inputs": [
        {
          "internalType": "address",
          "name": "relayer",
          "type": "address"
        },
        {
          "internalType": "bool",
          "name": "authorized",
          "type": "bool"
        }
      ],
      "name": "setRelayerAuthorized",
      "outputs": [],
      "stateMutability": "nonpayable",
      "type": "function"
    },
    {
      "inputs": [
        {
          "internalType": "uint256",
          "name": "amount",
          "type": "uint256"
        }
      ],
      "name": "stake",
      "outputs": [],
      "stateMutability": "nonpayable",
      "type": "function"
    },
    {
      "inputs": [
        {
          "internalType": "uint256",
          "name": "",
          "type": "uint256"
        }
      ],
      "name": "stakers",
      "outputs": [
        {
          "internalType": "address",
          "name": "",
          "type": "address"
        }
      ],
      "stateMutability": "view",
      "type": "function"
    },
    {
      "inputs": [
        {
          "internalType": "address",
          "name": "",
          "type": "address"
        }
      ],
      "name": "stakes",
      "outputs": [
        {
          "internalType": "uint256",
          "name": "amount",
          "type": "uint256"
        },
        {
          "internalType": "uint256",
          "name": "stakedAt",
          "type": "uint256"
        },
        {
          "internalType": "uint256",
          "name": "lockUntil",
          "type": "uint256"
        }
      ],
      "stateMutability": "view",
      "type": "function"
    },
    {
      "inputs": [],
      "name": "symbol",
      "outputs": [
        {
          "internalType": "string",
          "name": "",
          "type": "string"
        }
      ],
      "stateMutability": "view",
      "type": "function"
    },
    {
      "inputs": [],
      "name": "totalStaked",
      "outputs": [
        {
          "internalType": "uint256",
          "name": "",
          "type": "uint256"
        }
      ],
      "stateMutability": "view",
      "type": "function"
    },
    {
      "inputs": [],
      "name": "totalSupply",
      "outputs": [
        {
          "internalType": "uint256",
          "name": "",
          "type": "uint256"
        }
      ],
      "stateMutability": "view",
      "type": "function"
    },
    {
      "inputs": [
        {
          "internalType": "address",
          "name": "to",
          "type": "address"
        },
        {
          "internalType": "uint256",
          "name": "value",
          "type": "uint256"
        }
      ],
      "name": "transfer",
      "outputs": [
        {
          "internalType": "bool",
          "name": "",
          "type": "bool"
        }
      ],
      "stateMutability": "nonpayable",
      "type": "function"
    },
    {
      "inputs": [
        {
          "internalType": "address",
          "name": "from",
          "type": "address"
        },
        {
          "internalType": "address",
          "name": "to",
          "type": "address"
        },
        {
          "internalType": "uint256",
          "name": "value",
          "type": "uint256"
        }
      ],
      "name": "transferFrom",
      "outputs": [
        {
          "internalType": "bool",
          "name": "",
          "type": "bool"
        }
      ],
      "stateMutability": "nonpayable",
      "type": "function"
    },
    {
      "inputs": [
        {
          "internalType": "address",
          "name": "newOwner",
          "type": "address"
        }
      ],
      "name": "transferOwnership",
      "outputs": [],
      "stateMutability": "nonpayable",
      "type": "function"
    },
    {
      "inputs": [
        {
          "internalType": "uint256",
          "name": "amount",
          "type": "uint256"
        }
      ],
      "name": "unstake",
      "outputs": [],
      "stateMutability": "nonpayable",
      "type": "function"
    },
    {
      "inputs": [
        {
          "internalType": "address",
          "name": "user",
          "type": "address"
        }
      ],
      "name": "votingPower",
      "outputs": [
        {
          "internalType": "uint256",
          "name": "",
          "type": "uint256"
        }
      ],
      "stateMutability": "view",
      "type": "function"
    }
  ],
  "bytecode": "0x61016060405234801562000011575f80fd5b50336040518060400160405280600f81526020016e3c183a3a309b31361a102a37b5b2b760891b81525080604051806040016040528060018152602001603160f81b8152506040518060400160405280600f81526020016e3c183a3a309b31361a102a37b5b2b760891b81525060405180604001604052806003815260200162160c1560ea1b8152508160039081620000ab9190620004ae565b506004620000ba8282620004ae565b50620000cc91508390506005620001da565b61012052620000dd816006620001da565b61014052815160208084019190912060e052815190820120610100524660a0526200016a60e05161010051604080517f8b73c3c69bb8fe3d512ecc4cf759cc79239f7b179b0ffacaa9a75d522b39400f60208201529081019290925260608201524660808201523060a08201525f9060c00160405160208183030381529060405280519060200120905090565b60805250503060c052506001600160a01b038116620001a357604051631e4fbdf760e01b81525f60048201526024015b60405180910390fd5b620001ae8162000212565b506001600955620001cc336b033b2e3c9fd0803ce800000062000263565b42600f555f600e556200060c565b5f602083511015620001f957620001f1836200029f565b90506200020c565b81620002068482620004ae565b5060ff90505b92915050565b600880546001600160a01b038381166001600160a01b0319831681179093556040519116919082907f8be0079c531659141344cd1fd0a4f28419497f9722a3daafe3b4186f6b6457e0905f90a35050565b6001600160a01b0382166200028e5760405163ec442f0560e01b81525f60048201526024016200019a565b6200029b5f8383620002e1565b5050565b5f80829050601f81511115620002cc578260405163305a27a960e01b81526004016200019a91906200057a565b8051620002d982620005c8565b179392505050565b6001600160a01b0383166200030f578060025f828254620003039190620005ec565b90915550620003819050565b6001600160a01b0383165f9081526020819052604090205481811015620003635760405163391434e360e21b81526001600160a01b038516600482015260248101829052604481018390526064016200019a565b6001600160a01b0384165f9081526020819052604090209082900390555b6001600160a01b0382166200039f57600280548290039055620003bd565b6001600160a01b0382165f9081526020819052604090208054820190555b816001600160a01b0316836001600160a01b03167fddf252ad1be2c89b69c2b068fc378daa952ba7f163c4a11628f55a4df523b3ef836040516200040391815260200190565b60405180910390a3505050565b634e487b7160e01b5f52604160045260245ffd5b600181811c908216806200043957607f821691505b6020821081036200045857634e487b7160e01b5f52602260045260245ffd5b50919050565b601f821115620004a957805f5260205f20601f840160051c81016020851015620004855750805b601f840160051c820191505b81811015620004a6575f815560010162000491565b50505b505050565b81516001600160401b03811115620004ca57620004ca62000410565b620004e281620004db845462000424565b846200045e565b602080601f83116001811462000518575f8415620005005750858301515b5f19600386901b1c1916600185901b17855562000572565b5f85815260208120601f198616915b82811015620005485788860151825594840194600190910190840162000527565b50858210156200056657878501515f19600388901b60f8161c191681555b505060018460011b0185555b505050505050565b5f602080835283518060208501525f5b81811015620005a8578581018301518582016040015282016200058a565b505f604082860101526040601f19601f8301168501019250505092915050565b8051602080830151919081101562000458575f1960209190910360031b1b16919050565b808201808211156200020c57634e487b7160e01b5f52601160045260245ffd5b60805160a05160c05160e0516101005161012051610140516122c76200065e5f395f61173801525f61170b01525f6115ce01525f6115a601525f61150101525f61152b01525f61155501526122c75ff3fe608060405234801561000f575f80fd5b5060043610610276575f3560e01c806379cc679011610156578063a9059cbb116100ca578063d505accf11610084578063d505accf146105d4578063dd62ed3e146105e7578063eaf98d231461061f578063f047cd0f14610627578063f2fde38b1461062f578063fd5e6dd114610642575f80fd5b8063a9059cbb14610500578063c07473f614610513578063c345315314610526578063c7b28e3c1461059e578063cb1c2b5c146105b1578063d16a8a4f146105c1575f80fd5b806389c614b81161011b57806389c614b8146104ae5780638da5cb5b146104b75780639534474b146103c557806395d89b41146104dc578063a694fc3a146104e4578063a70b9f0c146104f7575f80fd5b806379cc6790146104535780637d074efe146104665780637ecebe0014610477578063817b1cd21461048a57806384b0196e14610493575f80fd5b80633644e515116101ed57806361c67295116101b257806361c67295146103d25780636f1e8533146103e557806370a0823114610407578063715018a61461042f5780637444b8a114610437578063766718081461044a575f80fd5b80633644e515146103945780633c8e38b91461039c57806342966c68146103aa5780634f03262b146103bd57806357fdf1e7146103c5575f80fd5b80631932526d1161023e5780631932526d1461031e57806323b872dd1461032857806329e295c51461033b5780632e17de781461035d5780632ff2e9dc14610372578063313ce56714610385575f80fd5b806306fdde031461027a578063095ea7b3146102985780631319649d146102bb57806316934fc4146102cd57806318160ddd14610316575b5f80fd5b610282610655565b60405161028f9190611dd6565b60405180910390f35b6102ab6102a6366004611e0a565b6106e5565b604051901515815260200161028f565b600b545b60405190815260200161028f565b6102fb6102db366004611e32565b600a6020525f908152604090208054600182015460029092015490919083565b6040805193845260208401929092529082015260600161028f565b6002546102bf565b6102bf6201518081565b6102ab610336366004611e4b565b6106fe565b6102ab610349366004611e32565b60106020525f908152604090205460ff1681565b61037061036b366004611e84565b610721565b005b6102bf6b033b2e3c9fd0803ce800000081565b6040516012815260200161028f565b6102bf610877565b6102bf66038d7ea4c6800081565b6103706103b8366004611e84565b610885565b6102ab61088f565b6102bf655af3107a400081565b6103706103e0366004611ee3565b6108a8565b6102ab6103f3366004611e32565b600c6020525f908152604090205460ff1681565b6102bf610415366004611e32565b6001600160a01b03165f9081526020819052604090205490565b610370610bda565b610370610445366004611f4a565b610bed565b6102bf600e5481565b610370610461366004611e0a565b610c53565b6102bf69021e19e0c9bab240000081565b6102bf610485366004611e32565b610c6c565b6102bf600d5481565b61049b610c89565b60405161028f9796959493929190611f83565b6102bf600f5481565b6008546001600160a01b03165b6040516001600160a01b03909116815260200161028f565b610282610ccb565b6103706104f2366004611e84565b610cda565b6102bf610e1081565b6102ab61050e366004611e0a565b610e97565b6102bf610521366004611e32565b610ea4565b61057c610534366004611e32565b6001600160a01b03165f908152600a60209081526040918290208251606081018452815480825260018301549382018490526002909201549301839052929091904282111590565b604080519485526020850193909352918301521515606082015260800161028f565b6103706105ac366004611e0a565b610ec5565b6102bf68056bc75e2d6310000081565b6103706105cf36600461201a565b611033565b6103706105e236600461209a565b611128565b6102bf6105f5366004612107565b6001600160a01b039182165f90815260016020908152604080832093909416825291909152205490565b6102bf600181565b6102bf61125e565b61037061063d366004611e32565b61128f565b6104c4610650366004611e84565b6112c9565b60606003805461066490612138565b80601f016020809104026020016040519081016040528092919081815260200182805461069090612138565b80156106db5780601f106106b2576101008083540402835291602001916106db565b820191905f5260205f20905b8154815290600101906020018083116106be57829003601f168201915b5050505050905090565b5f336106f28185856112f1565b60019150505b92915050565b5f3361070b858285611303565b610716858585611379565b506001949350505050565b6107296113d6565b335f908152600a6020526040902080548211156107825760405162461bcd60e51b8152602060048201526012602482015271496e73756666696369656e74207374616b6560701b60448201526064015b60405180910390fd5b80600201544210156107c55760405162461bcd60e51b815260206004820152600c60248201526b14dd185ad9481b1bd8dad95960a21b6044820152606401610779565b81815f015f8282546107d79190612184565b9250508190555081600d5f8282546107ef9190612184565b909155505080545f0361081b57335f818152600c60205260409020805460ff1916905561081b90611400565b610826303384611379565b805460405133917f7fc4727e062e336010f2c282598ef5f14facb3de68cf8195c2f23e1454b2b74e9161086191868252602082015260400190565b60405180910390a2506108746001600955565b50565b5f6108806114f5565b905090565b610874338261161e565b5f610e10600f546108a09190612197565b421015905090565b6108b0611652565b6108b86113d6565b610e10600f546108c89190612197565b42101561090c5760405162461bcd60e51b815260206004820152601260248201527145706f6368206e6f7420636f6d706c65746560701b6044820152606401610779565b82811461094d5760405162461bcd60e51b815260206004820152600f60248201526e098cadccee8d040dad2e6dac2e8c6d608b1b6044820152606401610779565b600e8054905f61095c836121aa565b909155505042600f555f808467ffffffffffffffff811115610980576109806121c2565b6040519080825280602002602001820160405280156109a9578160200160208202803683370190505b5090505f5b85811015610a7a575f600a5f8989858181106109cc576109cc6121d6565b90506020020160208101906109e19190611e32565b6001600160a01b0316815260208101919091526040015f205490506064868684818110610a1057610a106121d6565b9050602002013582610a2291906121ea565b610a2c9190612215565b838381518110610a3e57610a3e6121d6565b602002602001018181525050828281518110610a5c57610a5c6121d6565b602002602001015184610a6f9190612197565b9350506001016109ae565b50815f03610ac457600e54604080515f80825260208201527f6b186fc149a1a7d6e090e3224e71cb1f37fb99bff8cfd98c41d782c9b000c5d5910160405180910390a25050610bca565b5f805f5b87811015610b88575f848281518110610ae357610ae36121d6565b60200260200101511115610b80575f8569021e19e0c9bab2400000868481518110610b1057610b106121d6565b6020026020010151610b2291906121ea565b610b2c9190612215565b90508015610b7e57610b648a8a84818110610b4957610b496121d6565b9050602002016020810190610b5e9190611e32565b8261167f565b610b6e8185612197565b935082610b7a816121aa565b9350505b505b600101610ac8565b50600e5460408051848152602081018490527f6b186fc149a1a7d6e090e3224e71cb1f37fb99bff8cfd98c41d782c9b000c5d5910160405180910390a2505050505b610bd46001600955565b50505050565b610be2611652565b610beb5f6116b3565b565b610bf5611652565b6001600160a01b0382165f81815260106020908152604091829020805460ff191685151590811790915591519182527f5afe4db7a7f6fb62654cf58aa1c5b48bf792e80667fd0480625d1e5d52744937910160405180910390a25050565b610c5e823383611303565b610c68828261161e565b5050565b6001600160a01b0381165f908152600760205260408120546106f8565b5f6060805f805f6060610c9a611704565b610ca2611731565b604080515f80825260208201909252600f60f81b9b939a50919850469750309650945092509050565b60606004805461066490612138565b610ce26113d6565b68056bc75e2d63100000811015610d315760405162461bcd60e51b815260206004820152601360248201527242656c6f77206d696e696d756d207374616b6560681b6044820152606401610779565b335f90815260208190526040902054811115610d865760405162461bcd60e51b8152602060048201526014602482015273496e73756666696369656e742062616c616e636560601b6044820152606401610779565b610d91333083611379565b335f908152600c602052604090205460ff16610e0157600b805460018181019092557f0175b7a638427703f0dbe7bb9bbf987a2551717b34e79f33b5b1008d1fa01db90180546001600160a01b031916339081179091555f908152600c60205260409020805460ff191690911790555b335f908152600a60205260408120805490918391839190610e23908490612197565b90915550504260018201819055610e3e906201518090612197565b816002018190555081600d5f828254610e579190612197565b9091555050805460405133917f1449c6dd7851abc30abf37f57715f492010519147cc2652fbc38202c18a6ee909161086191868252602082015260400190565b5f336106f2818585611379565b6001600160a01b0381165f908152600a60205260408120546106f89061175e565b610ecd6113d6565b335f9081526010602052604090205460ff16610f245760405162461bcd60e51b81526020600482015260166024820152752737ba1030baba3437b934bd32b2103932b630bcb2b960511b6044820152606401610779565b5f610f35655af3107a4000836121ea565b90505f6064610f456001846121ea565b610f4f9190612215565b90505f610f5c8284612197565b905080610f7d866001600160a01b03165f9081526020819052604090205490565b1015610fcb5760405162461bcd60e51b815260206004820152601a60248201527f506179657220696e73756666696369656e742062616c616e63650000000000006044820152606401610779565b610fd6853385611379565b610fe0858361161e565b604080518481526020810184905233916001600160a01b038816917f6b42d8401f707f076f558f1ea157a3d6393f4b118d75586f068a85b0873ba2a7910160405180910390a3505050610c686001600955565b61103b6113d6565b5f60646110496001866121ea565b6110539190612215565b90505f6110608286612197565b335f908152602081905260409020549091508111156110b85760405162461bcd60e51b8152602060048201526014602482015273496e73756666696369656e742062616c616e636560601b6044820152606401610779565b6110c3338787611379565b6110cd338361161e565b856001600160a01b0316336001600160a01b03167ff90d96a1847fcce94648109ffc548e4eb9f3d4bfb0ef4d577d704c9edcf709a287878760405161111493929190612234565b60405180910390a35050610bd46001600955565b8342111561114c5760405163313c898160e11b815260048101859052602401610779565b5f7f6e71edae12b1b97f4d1f60370fef10105fa2faae0126114a169c64845d6126c98888886111978c6001600160a01b03165f90815260076020526040902080546001810190915590565b6040805160208101969096526001600160a01b0394851690860152929091166060840152608083015260a082015260c0810186905260e0016040516020818303038152906040528051906020012090505f6111f1826118b6565b90505f611200828787876118e2565b9050896001600160a01b0316816001600160a01b031614611247576040516325c0072360e11b81526001600160a01b0380831660048301528b166024820152604401610779565b6112528a8a8a6112f1565b50505050505050505050565b5f61126860025490565b5f0361127357505f90565b600254600d54611285906127106121ea565b6108809190612215565b611297611652565b6001600160a01b0381166112c057604051631e4fbdf760e01b81525f6004820152602401610779565b610874816116b3565b600b81815481106112d8575f80fd5b5f918252602090912001546001600160a01b0316905081565b6112fe838383600161190e565b505050565b6001600160a01b038381165f908152600160209081526040808320938616835292905220545f19811015610bd4578181101561136b57604051637dc7a0d960e11b81526001600160a01b03841660048201526024810182905260448101839052606401610779565b610bd484848484035f61190e565b6001600160a01b0383166113a257604051634b637e8f60e11b81525f6004820152602401610779565b6001600160a01b0382166113cb5760405163ec442f0560e01b81525f6004820152602401610779565b6112fe8383836119e0565b6002600954036113f957604051633ee5aeb560e01b815260040160405180910390fd5b6002600955565b5f5b600b54811015610c6857816001600160a01b0316600b8281548110611429576114296121d6565b5f918252602090912001546001600160a01b0316036114ed57600b805461145290600190612184565b81548110611462576114626121d6565b5f91825260209091200154600b80546001600160a01b03909216918390811061148d5761148d6121d6565b905f5260205f20015f6101000a8154816001600160a01b0302191690836001600160a01b03160217905550600b8054806114c9576114c9612269565b5f8281526020902081015f1990810180546001600160a01b03191690550190555050565b600101611402565b5f306001600160a01b037f00000000000000000000000000000000000000000000000000000000000000001614801561154d57507f000000000000000000000000000000000000000000000000000000000000000046145b1561157757507f000000000000000000000000000000000000000000000000000000000000000090565b610880604080517f8b73c3c69bb8fe3d512ecc4cf759cc79239f7b179b0ffacaa9a75d522b39400f60208201527f0000000000000000000000000000000000000000000000000000000000000000918101919091527f000000000000000000000000000000000000000000000000000000000000000060608201524660808201523060a08201525f9060c00160405160208183030381529060405280519060200120905090565b6001600160a01b03821661164757604051634b637e8f60e11b81525f6004820152602401610779565b610c68825f836119e0565b6008546001600160a01b03163314610beb5760405163118cdaa760e01b8152336004820152602401610779565b6001600160a01b0382166116a85760405163ec442f0560e01b81525f6004820152602401610779565b610c685f83836119e0565b600880546001600160a01b038381166001600160a01b0319831681179093556040519116919082907f8be0079c531659141344cd1fd0a4f28419497f9722a3daafe3b4186f6b6457e0905f90a35050565b60606108807f00000000000000000000000000000000000000000000000000000000000000006005611b06565b60606108807f00000000000000000000000000000000000000000000000000000000000000006006611b06565b5f6001821161176b575090565b816001600160801b82106117845760809190911c9060401b5b68010000000000000000821061179f5760409190911c9060201b5b64010000000082106117b65760209190911c9060101b5b6201000082106117cb5760109190911c9060081b5b61010082106117df5760089190911c9060041b5b601082106117f25760049190911c9060021b5b600482106117fe5760011b5b600302600190811c9081858161181657611816612201565b048201901c9050600181858161182e5761182e612201565b048201901c9050600181858161184657611846612201565b048201901c9050600181858161185e5761185e612201565b048201901c9050600181858161187657611876612201565b048201901c9050600181858161188e5761188e612201565b048201901c90506118ad8185816118a7576118a7612201565b04821190565b90039392505050565b5f6106f86118c26114f5565b8360405161190160f01b8152600281019290925260228201526042902090565b5f805f806118f288888888611baf565b9250925092506119028282611c77565b50909695505050505050565b6001600160a01b0384166119375760405163e602df0560e01b81525f6004820152602401610779565b6001600160a01b03831661196057604051634a1406b160e11b81525f6004820152602401610779565b6001600160a01b038085165f9081526001602090815260408083209387168352929052208290558015610bd457826001600160a01b0316846001600160a01b03167f8c5be1e5ebec7d5bd14f71427d1e84f3dd0314c0f7b2291e5b200ac8c7c3b925846040516119d291815260200190565b60405180910390a350505050565b6001600160a01b038316611a0a578060025f8282546119ff9190612197565b90915550611a7a9050565b6001600160a01b0383165f9081526020819052604090205481811015611a5c5760405163391434e360e21b81526001600160a01b03851660048201526024810182905260448101839052606401610779565b6001600160a01b0384165f9081526020819052604090209082900390555b6001600160a01b038216611a9657600280548290039055611ab4565b6001600160a01b0382165f9081526020819052604090208054820190555b816001600160a01b0316836001600160a01b03167fddf252ad1be2c89b69c2b068fc378daa952ba7f163c4a11628f55a4df523b3ef83604051611af991815260200190565b60405180910390a3505050565b606060ff8314611b2057611b1983611d2f565b90506106f8565b818054611b2c90612138565b80601f0160208091040260200160405190810160405280929190818152602001828054611b5890612138565b8015611ba35780601f10611b7a57610100808354040283529160200191611ba3565b820191905f5260205f20905b815481529060010190602001808311611b8657829003601f168201915b505050505090506106f8565b5f80807f7fffffffffffffffffffffffffffffff5d576e7357a4501ddfe92f46681b20a0841115611be857505f91506003905082611c6d565b604080515f808252602082018084528a905260ff891692820192909252606081018790526080810186905260019060a0016020604051602081039080840390855afa158015611c39573d5f803e3d5ffd5b5050604051601f1901519150506001600160a01b038116611c6457505f925060019150829050611c6d565b92505f91508190505b9450945094915050565b5f826003811115611c8a57611c8a61227d565b03611c93575050565b6001826003811115611ca757611ca761227d565b03611cc55760405163f645eedf60e01b815260040160405180910390fd5b6002826003811115611cd957611cd961227d565b03611cfa5760405163fce698f760e01b815260048101829052602401610779565b6003826003811115611d0e57611d0e61227d565b03610c68576040516335e2f38360e21b815260048101829052602401610779565b60605f611d3b83611d6c565b6040805160208082528183019092529192505f91906020820181803683375050509182525060208101929092525090565b5f60ff8216601f8111156106f857604051632cd44ac360e21b815260040160405180910390fd5b5f81518084525f5b81811015611db757602081850181015186830182015201611d9b565b505f602082860101526020601f19601f83011685010191505092915050565b602081525f611de86020830184611d93565b9392505050565b80356001600160a01b0381168114611e05575f80fd5b919050565b5f8060408385031215611e1b575f80fd5b611e2483611def565b946020939093013593505050565b5f60208284031215611e42575f80fd5b611de882611def565b5f805f60608486031215611e5d575f80fd5b611e6684611def565b9250611e7460208501611def565b9150604084013590509250925092565b5f60208284031215611e94575f80fd5b5035919050565b5f8083601f840112611eab575f80fd5b50813567ffffffffffffffff811115611ec2575f80fd5b6020830191508360208260051b8501011115611edc575f80fd5b9250929050565b5f805f8060408587031215611ef6575f80fd5b843567ffffffffffffffff80821115611f0d575f80fd5b611f1988838901611e9b565b90965094506020870135915080821115611f31575f80fd5b50611f3e87828801611e9b565b95989497509550505050565b5f8060408385031215611f5b575f80fd5b611f6483611def565b915060208301358015158114611f78575f80fd5b809150509250929050565b60ff60f81b881681525f602060e06020840152611fa360e084018a611d93565b8381036040850152611fb5818a611d93565b606085018990526001600160a01b038816608086015260a0850187905284810360c0860152855180825260208088019350909101905f5b8181101561200857835183529284019291840191600101611fec565b50909c9b505050505050505050505050565b5f805f806060858703121561202d575f80fd5b61203685611def565b935060208501359250604085013567ffffffffffffffff80821115612059575f80fd5b818701915087601f83011261206c575f80fd5b81358181111561207a575f80fd5b88602082850101111561208b575f80fd5b95989497505060200194505050565b5f805f805f805f60e0888a0312156120b0575f80fd5b6120b988611def565b96506120c760208901611def565b95506040880135945060608801359350608088013560ff811681146120ea575f80fd5b9699959850939692959460a0840135945060c09093013592915050565b5f8060408385031215612118575f80fd5b61212183611def565b915061212f60208401611def565b90509250929050565b600181811c9082168061214c57607f821691505b60208210810361216a57634e487b7160e01b5f52602260045260245ffd5b50919050565b634e487b7160e01b5f52601160045260245ffd5b818103818111156106f8576106f8612170565b808201808211156106f8576106f8612170565b5f600182016121bb576121bb612170565b5060010190565b634e487b7160e01b5f52604160045260245ffd5b634e487b7160e01b5f52603260045260245ffd5b80820281158282048414176106f8576106f8612170565b634e487b7160e01b5f52601260045260245ffd5b5f8261222f57634e487b7160e01b5f52601260045260245ffd5b500490565b83815260406020820152816040820152818360608301375f818301606090810191909152601f909201601f1916010192915050565b634e487b7160e01b5f52603160045260245ffd5b634e487b7160e01b5f52602160045260245ffdfea2646970667358221220bcdcff7bdad6cf401c65359b481fb33faabdfa4cc554af552d136a56e1be09d664736f6c63430008180033",
  "linkReferences": {},
  "deployedLinkReferences": {},
  "immutableReferences": {
    "3495": [
      {
        "length": 32,
        "start": 5461
      }
    ],
    "3497": [
      {
        "length": 32,
        "start": 5419
      }
    ],
    "3499": [
      {
        "length": 32,
        "start": 5377
      }
    ],
    "3501": [
      {
        "length": 32,
        "start": 5542
      }
    ],
    "3503": [
      {
        "length": 32,
        "start": 5582
      }
    ],
    "3506": [
      {
        "length": 32,
        "start": 5899
      }
    ],
    "3509": [
      {
        "length": 32,
        "start": 5944
      }
    ]
  },
  "inputSourceName": "project/contracts/X0TToken.sol",
  "buildInfoId": "solc-0_8_24-78062bd92b65c74316654e42be72138d528268b1"
}