{
  "_format": "hh-sol-artifact-1",
  "contractName": "X0TToken",
  "sourceName": "contracts/X0TToken.sol",
  "abi": [
    {
      "inputs": [],
      "stateMutability": "nonpayable",
      "type": "constructor"
    },
    {
      "inputs": [],
      "name": "ECDSAInvalidSignature",
      "type": "error"
    },
    {
      "inputs": [
        {
          "internalType": "uint256",
          "name": "length",
          "type": "uint256"
        }
      ],
      "name": "ECDSAInvalidSignatureLength",
      "type": "error"
    },
    {
      "inputs": [
        {
          "internalType": "bytes32",
          "name": "s",
          "type": "bytes32"
        }
      ],
      "name": "ECDSAInvalidSignatureS",
      "type": "error"
    },
    {
      "inputs": [
        {
          "internalType": "address",
          "name": "spender",
          "type": "address"
        },
        {
          "internalType": "uint256",
          "name": "allowance",
          "type": "uint256"
        },
        {
          "internalType": "uint256",
          "name": "needed",
          "type": "uint256"
        }
      ],
      "name": "ERC20InsufficientAllowance",
      "type": "error"
    },
    {
      "inputs": [
        {
          "internalType": "address",
          "name": "sender",
          "type": "address"
        },
        {
          "internalType": "uint256",
          "name": "balance",
          "type": "uint256"
        },
        {
          "internalType": "uint256",
          "name": "needed",
          "type": "uint256"
        }
      ],
      "name": "ERC20InsufficientBalance",
      "type": "error"
    },
    {
      "inputs": [
        {
          "internalType": "address",
          "name": "approver",
          "type": "address"
        }
      ],
      "name": "ERC20InvalidApprover",
      "type": "error"
    },
    {
      "inputs": [
        {
          "internalType": "address",
          "name": "receiver",
          "type": "address"
        }
      ],
      "name": "ERC20InvalidReceiver",
      "type": "error"
    },
    {
      "inputs": [
        {
          "internalType": "address",
          "name": "sender",
          "type": "address"
        }
      ],
      "name": "ERC20InvalidSender",
      "type": "error"
    },
    {
      "inputs": [
        {
          "internalType": "address",
          "name": "spender",
          "type": "address"
        }
      ],
      "name": "ERC20InvalidSpender",
      "type": "error"
    },
    {
      "inputs": [
        {
          "internalType": "uint256",
          "name": "deadline",
          "type": "uint256"
        }
      ],
      "name": "ERC2612ExpiredSignature",
      "type": "error"
    },
    {
      "inputs": [
        {
          "internalType": "address",
          "name": "signer",
          "type": "address"
        },
        {
          "internalType": "address",
          "name": "owner",
          "type": "address"
        }
      ],
      "name": "ERC2612InvalidSigner",
      "type": "error"
    },
    {
      "inputs": [
        {
          "internalType": "address",
          "name": "account",
          "type": "address"
        },
        {
          "internalType": "uint256",
          "name": "currentNonce",
          "type": "uint256"
        }
      ],
      "name": "InvalidAccountNonce",
      "type": "error"
    },
    {
      "inputs": [],
      "name": "InvalidShortString",
      "type": "error"
    },
    {
      "inputs": [
        {
          "internalType": "address",
          "name": "owner",
          "type": "address"
        }
      ],
      "name": "OwnableInvalidOwner",
      "type": "error"
    },
    {
      "inputs": [
        {
          "internalType": "address",
          "name": "account",
          "type": "address"
        }
      ],
      "name": "OwnableUnauthorizedAccount",
      "type": "error"
    },
    {
      "inputs": [],
      "name": "ReentrancyGuardReentrantCall",
      "type": "error"
    },
    {
      "inputs": [
        {
          "internalType": "string",
          "name": "str",
          "type": "string"
        }
      ],
      "name": "StringTooLong",
      "type": "error"
    },
    {
      "anonymous": false,
      "inputs": [
        {
          "indexed": true,
          "internalType": "address",
          "name": "owner",
          "type": "address"
        },
        {
          "indexed": true,
          "internalType": "address",
          "name": "spender",
          "type": "address"
        },
        {
          "indexed": false,
          "internalType": "uint256",
          "name": "value",
          "type": "uint256"
        }
      ],
      "name": "Approval",
      "type": "event"
    },
    {
      "anonymous": false,
      "inputs": [],
      "name": "EIP712DomainChanged",
      "type": "event"
    },
    {
      "anonymous": false,
      "inputs": [
        {
          "indexed": true,
          "internalType": "uint256",
          "name": "epoch",
          "type": "uint256"
        },
        {
          "indexed": false,
          "internalType": "uint256",
          "name": "totalRewards",
          "type": "uint256"
        },
        {
          "indexed": false,
          "internalType": "uint256",
          "name": "recipientCount",
          "type": "uint256"
        }
      ],
      "name": "EpochRewardsDistributed",
      "type": "event"
    },
    {
      "anonymous": false,
      "inputs": [
        {
          "indexed": true,
          "internalType": "address",
          "name": "previousOwner",
          "type": "address"
        },
        {
          "indexed": true,
          "internalType": "address",
          "name": "newOwner",
          "type": "address"
        }
      ],
      "name": "OwnershipTransferred",
      "type": "event"
    },
    {
      "anonymous": false,
      "inputs": [
        {
          "indexed": true,
          "internalType": "address",
          "name": "payer",
          "type": "address"
        },
        {
          "indexed": true,
          "internalType": "address",
          "name": "relayer",
          "type": "address"
        },
        {
          "indexed": false,
          "internalType": "uint256",
          "name": "amount",
          "type": "uint256"
        },
        {
          "indexed": false,
          "internalType": "uint256",
          "name": "feeBurned",
          "type": "uint256"
        }
      ],
      "name": "RelayPaid",
      "type": "event"
    },
    {
      "anonymous": false,
      "inputs": [
        {
          "indexed": true,
          "internalType": "address",
          "name": "relayer",
          "type": "address"
        },
        {
          "indexed": false,
          "internalType": "bool",
          "name": "authorized",
          "type": "bool"
        }
      ],
      "name": "RelayerAuthorized",
      "type": "event"
    },
    {
      "anonymous": false,
      "inputs": [
        {
          "indexed": true,
          "internalType": "address",
          "name": "payer",
          "type": "address"
        },
        {
          "indexed": true,
          "internalType": "address",
          "name": "provider",
          "type": "address"
        },
        {
          "indexed": false,
          "internalType": "uint256",
          "name": "amount",
          "type": "uint256"
        },
        {
          "indexed": false,
          "internalType": "string",
          "name": "resourceType",
          "type": "string"
        }
      ],
      "name": "ResourcePaid",
      "type": "event"
    },
    {
      "anonymous": false,
      "inputs": [
        {
          "indexed": true,
          "internalType": "address",
          "name": "user",
          "type": "address"
        },
        {
          "indexed": false,
          "internalType": "uint256",
          "name": "amount",
          "type": "uint256"
        },
        {
          "indexed": false,
          "internalType": "uint256",
          "name": "totalStaked",
          "type": "uint256"
        }
      ],
      "name": "Staked",
      "type": "event"
    },
    {
      "anonymous": false,
      "inputs": [
        {
          "indexed": true,
          "internalType": "address",
          "name": "from",
          "type": "address"
        },
        {
          "indexed": true,
          "internalType": "address",
          "name": "to",
          "type": "address"
        },
        {
          "indexed": false,
          "internalType": "uint256",
          "name": "value",
          "type": "uint256"
        }
      ],
      "name": "Transfer",
      "type": "event"
    },
    {
      "anonymous": false,
      "inputs": [
        {
          "indexed": true,
          "internalType": "address",
          "name": "user",
          "type": "address"
        },
        {
          "indexed": false,
          "internalType": "uint256",
          "name": "amount",
          "type": "uint256"
        },
        {
          "indexed": false,
          "internalType": "uint256",
          "name": "totalStaked",
          "type": "uint256"
        }
      ],
      "name": "Unstaked",
      "type": "event"
    },
    {
      "inputs": [],
      "name": "DOMAIN_SEPARATOR",
      "outputs": [
        {
          "internalType": "bytes32",
          "name": "",
          "type": "bytes32"
        }
      ],
      "stateMutability": "view",
      "type": "function"
    },
    {
      "inputs": [],
      "name": "EPOCH_DURATION",
      "outputs": [
        {
          "internalType": "uint256",
          "name": "",
          "type": "uint256"
        }
      ],
      "stateMutability": "view",
      "type": "function"
    },
    {
      "inputs": [],
      "name": "FEE_PERCENT",
      "outputs": [
        {
          "internalType": "uint256",
          "name": "",
          "type": "uint256"
        }
      ],
      "stateMutability": "view",
      "type": "function"
    },
    {
      "inputs": [],
      "name": "INITIAL_SUPPLY",
      "outputs": [
        {
          "internalType": "uint256",
          "name": "",
          "type": "uint256"
        }
      ],
      "stateMutability": "view",
      "type": "function"
    },
    {
      "inputs": [],
      "name": "MIN_STAKE",
      "outputs": [
        {
          "internalType": "uint256",
          "name": "",
          "type": "uint256"
        }
      ],
      "stateMutability": "view",
      "type": "function"
    },
    {
      "inputs": [],
      "name": "PRICE_PER_MB_BANDWIDTH",
      "outputs": [
        {
          "internalType": "uint256",
          "name": "",
          "type": "uint256"
        }
      ],
      "stateMutability": "view",
      "type": "function"
    },
    {
      "inputs": [],
      "name": "PRICE_PER_MB_STORAGE",
      "outputs": [
        {
          "internalType": "uint256",
          "name": "",
          "type": "uint256"
        }
      ],
      "stateMutability": "view",
      "type": "function"
    },
    {
      "inputs": [],
      "name": "PRICE_PER_RELAY",
      "outputs": [
        {
          "internalType": "uint256",
          "name": "",
          "type": "uint256"
        }
      ],
      "stateMutability": "view",
      "type": "function"
    },
    {
      "inputs": [],
      "name": "REWARD_POOL_PER_EPOCH",
      "outputs": [
        {
          "internalType": "uint256",
          "name": "",
          "type": "uint256"
        }
      ],
      "stateMutability": "view",
      "type": "function"
    },
    {
      "inputs": [],
      "name": "STAKE_LOCK_PERIOD",
      "outputs": [
        {
          "internalType": "uint256",
          "name": "",
          "type": "uint256"
        }
      ],
      "stateMutability": "view",
      "type": "function"
    },
    {
      "inputs": [
        {
          "internalType": "address",
          "name": "owner",
          "type": "address"
        },
        {
          "internalType": "address",
          "name": "spender",
          "type": "address"
        }
      ],
      "name": "allowance",
      "outputs": [
        {
          "internalType": "uint256",
          "name": "",
          "type": "uint256"
        }
      ],
      "stateMutability": "view",
      "type": "function"
    },
    {
      "inputs": [
        {
          "internalType": "address",
          "name": "spender",
          "type": "address"
        },
        {
          "internalType": "uint256",
          "name": "value",
          "type": "uint256"
        }
      ],
      "name": "approve",
      "outputs": [
        {
          "internalType": "bool",
          "name": "",
          "type": "bool"
        }
      ],
      "stateMutability": "nonpayable",
      "type": "function"
    },
    {
      "inputs": [
        {
          "internalType": "address",
          "name": "",
          "type": "address"
        }
      ],
      "name": "authorizedRelayers",
      "outputs": [
        {
          "internalType": "bool",
          "name": "",
          "type": "bool"
        }
      ],
      "stateMutability": "view",
      "type": "function"
    },
    {
      "inputs": [
        {
          "internalType": "address",
          "name": "account",
          "type": "address"
        }
      ],
      "name": "balanceOf",
      "outputs": [
        {
          "internalType": "uint256",
          "name": "",
          "type": "uint256"
        }
      ],
      "stateMutability": "view",
      "type": "function"
    },
    {
      "inputs": [
        {
          "internalType": "uint256",
          "name": "value",
          "type": "uint256"
        }
      ],
      "name": "burn",
      "outputs": [],
      "stateMutability": "nonpayable",
      "type": "function"
    },
    {
      "inputs": [
        {
          "internalType": "address",
          "name": "account",
          "type": "address"
        },
        {
          "internalType": "uint256",
          "name": "value",
          "type": "uint256"
        }
      ],
      "name": "burnFrom",
      "outputs": [],
      "stateMutability": "nonpayable",
      "type": "function"
    },
    {
      "inputs": [],
      "name": "canDistributeRewards",
      "outputs": [
        {
          "internalType": "bool",
          "name": "",
          "type": "bool"
        }
      ],
      "stateMutability": "view",
      "type": "function"
    },
    {
      "inputs": [],
      "name": "currentEpoch",
      "outputs": [
        {
          "internalType": "uint256",
          "name": "",
          "type": "uint256"
        }
      ],
      "stateMutability": "view",
      "type": "function"
    },
    {
      "inputs": [],
      "name": "decimals",
      "outputs": [
        {
          "internalType": "uint8",
          "name": "",
          "type": "uint8"
        }
      ],
      "stateMutability": "view",
      "type": "function"
    },
    {
      "inputs": [
        {
          "internalType": "address[]",
          "name": "recipients",
          "type": "address[]"
        },
        {
          "internalType": "uint256[]",
          "name": "uptimes",
          "type": "uint256[]"
        }
      ],
      "name": "distributeEpochRewards",
      "outputs": [],
      "stateMutability": "nonpayable",
      "type": "function"
    },
    {
      "inputs": [],
      "name": "eip712Domain",
      "outputs": [
        {
          "internalType": "bytes1",
          "name": "fields",
          "type": "bytes1"
        },
        {
          "internalType": "string",
          "name": "name",
          "type": "string"
        },
        {
          "internalType": "string",
          "name": "version",
          "type": "string"
        },
        {
          "internalType": "uint256",
          "name": "chainId",
          "type": "uint256"
        },
        {
          "internalType": "address",
          "name": "verifyingContract",
          "type": "address"
        },
        {
          "internalType": "bytes32",
          "name": "salt",
          "type": "bytes32"
        },
        {
          "internalType": "uint256[]",
          "name": "extensions",
          "type": "uint256[]"
        }
      ],
      "stateMutability": "view",
      "type": "function"
    },
    {
      "inputs": [
        {
          "internalType": "address",
          "name": "user",
          "type": "address"
        }
      ],
      "name": "getStakeInfo",
      "outputs": [
        {
          "internalType": "uint256",
          "name": "amount",
          "type": "uint256"
        },
        {
          "internalType": "uint256",
          "name": "stakedAt",
          "type": "uint256"
        },
        {
          "internalType": "uint256",
          "name": "lockUntil",
          "type": "uint256"
        },
        {
          "internalType": "bool",
          "name": "canUnstake",
          "type": "bool"
        }
      ],
      "stateMutability": "view",
      "type": "function"
    },
    {
      "inputs": [],
      "name": "getStakerCount",
      "outputs": [
        {
          "internalType": "uint256",
          "name": "",
          "type": "uint256"
        }
      ],
      "stateMutability": "view",
      "type": "function"
    },
    {
      "inputs": [],
      "name": "getStakingRatio",
      "outputs": [
        {
          "internalType": "uint256",
          "name": "",
          "type": "uint256"
        }
      ],
      "stateMutability": "view",
      "type": "function"
    },
    {
      "inputs": [
        {
          "internalType": "address",
          "name": "",
          "type": "address"
        }
      ],
      "name": "isStaker",
      "outputs": [
        {
          "internalType": "bool",
          "name": "",
          "type": "bool"
        }
      ],
      "stateMutability": "view",
      "type": "function"
    },
    {
      "inputs": [],
      "name": "lastEpochTime",
      "outputs": [
        {
          "internalType": "uint256",
          "name": "",
          "type": "uint256"
        }
      ],
      "stateMutability": "view",
      "type": "function"
    },
    {
      "inputs": [],
      "name": "name",
      "outputs": [
        {
          "internalType": "string",
          "name": "",
          "type": "string"
        }
      ],
      "stateMutability": "view",
      "type": "function"
    },
    {
      "inputs": [
        {
          "internalType": "address",
          "name": "owner",
          "type": "address"
        }
      ],
      "name": "nonces",
      "outputs": [
        {
          "internalType": "uint256",
          "name": "",
          "type": "uint256"
        }
      ],
      "stateMutability": "view",
      "type": "function"
    },
    {
      "inputs": [],
      "name": "owner",
      "outputs": [
        {
          "internalType": "address",
          "name": "",
          "type": "address"
        }
      ],
      "stateMutability": "view",
      "type": "function"
    },
    {
      "inputs": [
        {
          "internalType": "address",
          "name": "payer",
          "type": "address"
        },
        {
          "internalType": "uint256",
          "name": "relayCount",
          "type": "uint256"
        }
      ],
      "name": "payForRelay",
      "outputs": [],
      "stateMutability": "nonpayable",
      "type": "function"
    },
    {
      "inputs": [
        {
          "internalType": "address",
          "name": "provider",
          "type": "address"
        },
        {
          "internalType": "uint256",
          "name": "amount",
          "type": "uint256"
        },
        {
          "internalType": "string",
          "name": "resourceType",
          "type": "string"
        }
      ],
      "name": "payForResource",
      "outputs": [],
      "stateMutability": "nonpayable",
      "type": "function"
    },
    {
      "inputs": [
        {
          "internalType": "address",
          "name": "owner",
          "type": "address"
        },
        {
          "internalType": "address",
          "name": "spender",
          "type": "address"
        },
        {
          "internalType": "uint256",
          "name": "value",
          "type": "uint256"
        },
        {
          "internalType": "uint256",
          "name": "deadline",
          "type": "uint256"
        },
        {
          "internalType": "uint8",
          "name": "v",
          "type": "uint8"
        },
        {
          "internalType": "bytes32",
          "name": "r",
          "type": "bytes32"
        },
        {
          "internalType": "bytes32",
          "name": "s",
          "type": "bytes32"
        }
      ],
      "name": "permit",
      "outputs": [],
      "stateMutability": "nonpayable",
      "type": "function"
    },
    {
      "inputs": [],
      "name": "renounceOwnership",
      "outputs": [],
      "stateMutability": "nonpayable",
      "type": "function"
    },
    {
      "inputs": [
        {
          "internalType": "address",
          "name": "relayer",
          "type": "address"
        },
        {
          "internalType": "bool",
          "name": "authorized",
          "type": "bool"
        }
      ],
      "name": "setRelayerAuthorized",
      "outputs": [],
      "stateMutability": "nonpayable",
      "type": "function"
    },
    {
      "inputs": [
        {
          "internalType": "uint256",
          "name": "amount",
          "type": "uint256"
        }
      ],
      "name": "stake",
      "outputs": [],
      "stateMutability": "nonpayable",
      "type": "function"
    },
    {
      "inputs": [
        {
          "internalType": "uint256",
          "name": "",
          "type": "uint256"
        }
      ],
      "name": "stakers",
      "outputs": [
        {
          "internalType": "address",
          "name": "",
          "type": "address"
        }
      ],
      "stateMutability": "view",
      "type": "function"
    },
    {
      "inputs": [
        {
          "internalType": "address",
          "name": "",
          "type": "address"
        }
      ],
      "name": "stakes",
      "outputs": [
        {
          "internalType": "uint256",
          "name": "amount",
          "type": "uint256"
        },
        {
          "internalType": "uint256",
          "name": "stakedAt",
          "type": "uint256"
        },
        {
          "internalType": "uint256",
          "name": "lockUntil",
          "type": "uint256"
        }
      ],
      "stateMutability": "view",
      "type": "function"
    },
    {
      "inputs": [],
      "name": "symbol",
      "outputs": [
        {
          "internalType": "string",
          "name": "",
          "type": "string"
        }
      ],
      "stateMutability": "view",
      "type": "function"
    },
    {
      "inputs": [],
      "name": "totalStaked",
      "outputs": [
        {
          "internalType": "uint256",
          "name": "",
          "type": "uint256"
        }
      ],
      "stateMutability": "view",
      "type": "function"
    },
    {
      "inputs": [],
      "name": "totalSupply",
      "outputs": [
        {
          "internalType": "uint256",
          "name": "",
          "type": "uint256"
        }
      ],
      "stateMutability": "view",
      "type": "function"
    },
    {
      "inputs": [
        {
          "internalType": "address",
          "name": "to",
          "type": "address"
        },
        {
          "internalType": "uint256",
          "name": "value",
          "type": "uint256"
        }
      ],
      "name": "transfer",
      "outputs": [
        {
          "internalType": "bool",
          "name": "",
          "type": "bool"
        }
      ],
      "stateMutability": "nonpayable",
      "type": "function"
    },
    {
      "inputs": [
        {
          "internalType": "address",
          "name": "from",
          "type": "address"
        },
        {
          "internalType": "address",
          "name": "to",
          "type": "address"
        },
        {
          "internalType": "uint256",
          "name": "value",
          "type": "uint256"
        }
      ],
      "name": "transferFrom",
      "outputs": [
        {
          "internalType": "bool",
          "name": "",
          "type": "bool"
        }
      ],
      "stateMutability": "nonpayable",
      "type": "function"
    },
    {
      "inputs": [
        {
          "internalType": "address",
          "name": "newOwner",
          "type": "address"
        }
      ],
      "name": "transferOwnership",
      "outputs": [],
      "stateMutability": "nonpayable",
      "type": "function"
    },
    {
      "inputs": [
        {
          "internalType": "uint256",
          "name": "amount",
          "type": "uint256"
        }
      ],
      "name": "unstake",
      "outputs": [],
      "stateMutability": "nonpayable",
      "type": "function"
    },
    {
      "inputs": [
        {
          "internalType": "address",
          "name": "user",
          "type": "address"
        }
      ],
      "name": "votingPower",
      "outputs": [
        {
          "internalType": "uint256",
          "name": "",
          "type": "uint256"
        }
      ],
      "stateMutability": "view",
      "type": "function"
    }
  ],
  "bytecode": "0x6101606040523480156200001257600080fd5b50336040518060400160405280600f81526020016e3c183a3a309b31361a102a37b5b2b760891b81525080604051806040016040528060018152602001603160f81b8152506040518060400160405280600f81526020016e3c183a3a309b31361a102a37b5b2b760891b81525060405180604001604052806003815260200162160c1560ea1b8152508160039081620000ac9190620004c2565b506004620000bb8282620004c2565b50620000cd91508390506005620001de565b61012052620000de816006620001de565b61014052815160208084019190912060e052815190820120610100524660a0526200016c60e05161010051604080517f8b73c3c69bb8fe3d512ecc4cf759cc79239f7b179b0ffacaa9a75d522b39400f60208201529081019290925260608201524660808201523060a082015260009060c00160405160208183030381529060405280519060200120905090565b60805250503060c052506001600160a01b038116620001a657604051631e4fbdf760e01b8152600060048201526024015b60405180910390fd5b620001b18162000217565b506001600955620001cf336b033b2e3c9fd0803ce800000062000269565b42600f556000600e5562000625565b6000602083511015620001fe57620001f683620002a7565b905062000211565b816200020b8482620004c2565b5060ff90505b92915050565b600880546001600160a01b038381166001600160a01b0319831681179093556040519116919082907f8be0079c531659141344cd1fd0a4f28419497f9722a3daafe3b4186f6b6457e090600090a35050565b6001600160a01b038216620002955760405163ec442f0560e01b8152600060048201526024016200019d565b620002a360008383620002ea565b5050565b600080829050601f81511115620002d5578260405163305a27a960e01b81526004016200019d91906200058e565b8051620002e282620005de565b179392505050565b6001600160a01b038316620003195780600260008282546200030d919062000603565b909155506200038d9050565b6001600160a01b038316600090815260208190526040902054818110156200036e5760405163391434e360e21b81526001600160a01b038516600482015260248101829052604481018390526064016200019d565b6001600160a01b03841660009081526020819052604090209082900390555b6001600160a01b038216620003ab57600280548290039055620003ca565b6001600160a01b03821660009081526020819052604090208054820190555b816001600160a01b0316836001600160a01b03167fddf252ad1be2c89b69c2b068fc378daa952ba7f163c4a11628f55a4df523b3ef836040516200041091815260200190565b60405180910390a3505050565b634e487b7160e01b600052604160045260246000fd5b600181811c908216806200044857607f821691505b6020821081036200046957634e487b7160e01b600052602260045260246000fd5b50919050565b601f821115620004bd57600081815260208120601f850160051c81016020861015620004985750805b601f850160051c820191505b81811015620004b957828155600101620004a4565b5050505b505050565b81516001600160401b03811115620004de57620004de6200041d565b620004f681620004ef845462000433565b846200046f565b602080601f8311600181146200052e5760008415620005155750858301515b600019600386901b1c1916600185901b178555620004b9565b600085815260208120601f198616915b828110156200055f578886015182559484019460019091019084016200053e565b50858210156200057e5787850151600019600388901b60f8161c191681555b5050505050600190811b01905550565b600060208083528351808285015260005b81811015620005bd578581018301518582016040015282016200059f565b506000604082860101526040601f19601f8301168501019250505092915050565b80516020808301519190811015620004695760001960209190910360031b1b16919050565b808201808211156200021157634e487b7160e01b600052601160045260246000fd5b60805160a05160c05160e0516101005161012051610140516120f56200068060003960006116980152600061166b01526000611528015260006115000152600061145b01526000611485015260006114af01526120f56000f3fe608060405234801561001057600080fd5b506004361061027f5760003560e01c806379cc67901161015c578063a9059cbb116100ce578063d505accf11610087578063d505accf146105f9578063dd62ed3e1461060c578063eaf98d2314610645578063f047cd0f1461064d578063f2fde38b14610655578063fd5e6dd11461066857600080fd5b8063a9059cbb1461050e578063c07473f614610521578063c34531531461054a578063c7b28e3c146105c3578063cb1c2b5c146105d6578063d16a8a4f146105e657600080fd5b806389c614b81161012057806389c614b8146104bc5780638da5cb5b146104c55780639534474b146103d157806395d89b41146104ea578063a694fc3a146104f2578063a70b9f0c1461050557600080fd5b806379cc6790146104615780637d074efe146104745780637ecebe0014610485578063817b1cd21461049857806384b0196e146104a157600080fd5b80633644e515116101f557806361c67295116101b957806361c67295146103de5780636f1e8533146103f157806370a0823114610414578063715018a61461043d5780637444b8a114610445578063766718081461045857600080fd5b80633644e515146103a05780633c8e38b9146103a857806342966c68146103b65780634f03262b146103c957806357fdf1e7146103d157600080fd5b80631932526d116102475780631932526d1461032957806323b872dd1461033357806329e295c5146103465780632e17de78146103695780632ff2e9dc1461037e578063313ce5671461039157600080fd5b806306fdde0314610284578063095ea7b3146102a25780631319649d146102c557806316934fc4146102d757806318160ddd14610321575b600080fd5b61028c61067b565b6040516102999190611bf8565b60405180910390f35b6102b56102b0366004611c2e565b61070d565b6040519015158152602001610299565b600b545b604051908152602001610299565b6103066102e5366004611c58565b600a6020526000908152604090208054600182015460029092015490919083565b60408051938452602084019290925290820152606001610299565b6002546102c9565b6102c96201518081565b6102b5610341366004611c73565b610727565b6102b5610354366004611c58565b60106020526000908152604090205460ff1681565b61037c610377366004611caf565b61074b565b005b6102c96b033b2e3c9fd0803ce800000081565b60405160128152602001610299565b6102c961089f565b6102c966038d7ea4c6800081565b61037c6103c4366004611caf565b6108ae565b6102b56108b8565b6102c9655af3107a400081565b61037c6103ec366004611d14565b6108d2565b6102b56103ff366004611c58565b600c6020526000908152604090205460ff1681565b6102c9610422366004611c58565b6001600160a01b031660009081526020819052604090205490565b61037c610c25565b61037c610453366004611d80565b610c39565b6102c9600e5481565b61037c61046f366004611c2e565b610ca0565b6102c969021e19e0c9bab240000081565b6102c9610493366004611c58565b610cb9565b6102c9600d5481565b6104a9610cd7565b6040516102999796959493929190611dbc565b6102c9600f5481565b6008546001600160a01b03165b6040516001600160a01b039091168152602001610299565b61028c610d1d565b61037c610500366004611caf565b610d2c565b6102c9610e1081565b6102b561051c366004611c2e565b610eee565b6102c961052f366004611c58565b6001600160a01b03166000908152600a602052604090205490565b6105a1610558366004611c58565b6001600160a01b03166000908152600a60209081526040918290208251606081018452815480825260018301549382018490526002909201549301839052929091904282111590565b6040805194855260208501939093529183015215156060820152608001610299565b61037c6105d1366004611c2e565b610efc565b6102c968056bc75e2d6310000081565b61037c6105f4366004611e52565b61106f565b61037c610607366004611ed9565b611167565b6102c961061a366004611f4c565b6001600160a01b03918216600090815260016020908152604080832093909416825291909152205490565b6102c9600181565b6102c96112a1565b61037c610663366004611c58565b6112d5565b6104d2610676366004611caf565b611310565b60606003805461068a90611f7f565b80601f01602080910402602001604051908101604052809291908181526020018280546106b690611f7f565b80156107035780601f106106d857610100808354040283529160200191610703565b820191906000526020600020905b8154815290600101906020018083116106e657829003601f168201915b5050505050905090565b60003361071b81858561133a565b60019150505b92915050565b60003361073585828561134c565b6107408585856113c5565b506001949350505050565b610753611424565b336000908152600a6020526040902080548211156107ad5760405162461bcd60e51b8152602060048201526012602482015271496e73756666696369656e74207374616b6560701b60448201526064015b60405180910390fd5b80600201544210156107f05760405162461bcd60e51b815260206004820152600c60248201526b14dd185ad9481b1bd8dad95960a21b60448201526064016107a4565b818160000160008282546108049190611fcf565b9250508190555081600d600082825461081d9190611fcf565b9091555050805460000361084357336000908152600c60205260409020805460ff191690555b61084e3033846113c5565b805460405133917f7fc4727e062e336010f2c282598ef5f14facb3de68cf8195c2f23e1454b2b74e9161088991868252602082015260400190565b60405180910390a25061089c6001600955565b50565b60006108a961144e565b905090565b61089c3382611579565b6000610e10600f546108ca9190611fe2565b421015905090565b6108da6115af565b6108e2611424565b610e10600f546108f29190611fe2565b4210156109365760405162461bcd60e51b815260206004820152601260248201527145706f6368206e6f7420636f6d706c65746560701b60448201526064016107a4565b8281146109775760405162461bcd60e51b815260206004820152600f60248201526e098cadccee8d040dad2e6dac2e8c6d608b1b60448201526064016107a4565b600e805490600061098783611ff5565b909155505042600f556000808467ffffffffffffffff8111156109ac576109ac61200e565b6040519080825280602002602001820160405280156109d5578160200160208202803683370190505b50905060005b85811015610ab5576000600a60008989858181106109fb576109fb612024565b9050602002016020810190610a109190611c58565b6001600160a01b0316815260208101919091526040016000205490506064868684818110610a4057610a40612024565b9050602002013582610a52919061203a565b610a5c9190612051565b838381518110610a6e57610a6e612024565b602002602001018181525050828281518110610a8c57610a8c612024565b602002602001015184610a9f9190611fe2565b9350508080610aad90611ff5565b9150506109db565b5081600003610b0157600e5460408051600080825260208201527f6b186fc149a1a7d6e090e3224e71cb1f37fb99bff8cfd98c41d782c9b000c5d5910160405180910390a25050610c15565b60008060005b87811015610bd3576000848281518110610b2357610b23612024565b60200260200101511115610bc15760008569021e19e0c9bab2400000868481518110610b5157610b51612024565b6020026020010151610b63919061203a565b610b6d9190612051565b90508015610bbf57610ba58a8a84818110610b8a57610b8a612024565b9050602002016020810190610b9f9190611c58565b826115dc565b610baf8185611fe2565b935082610bbb81611ff5565b9350505b505b80610bcb81611ff5565b915050610b07565b50600e5460408051848152602081018490527f6b186fc149a1a7d6e090e3224e71cb1f37fb99bff8cfd98c41d782c9b000c5d5910160405180910390a2505050505b610c1f6001600955565b50505050565b610c2d6115af565b610c376000611612565b565b610c416115af565b6001600160a01b038216600081815260106020908152604091829020805460ff191685151590811790915591519182527f5afe4db7a7f6fb62654cf58aa1c5b48bf792e80667fd0480625d1e5d52744937910160405180910390a25050565b610cab82338361134c565b610cb58282611579565b5050565b6001600160a01b038116600090815260076020526040812054610721565b600060608060008060006060610ceb611664565b610cf3611691565b60408051600080825260208201909252600f60f81b9b939a50919850469750309650945092509050565b60606004805461068a90611f7f565b610d34611424565b68056bc75e2d63100000811015610d835760405162461bcd60e51b815260206004820152601360248201527242656c6f77206d696e696d756d207374616b6560681b60448201526064016107a4565b33600090815260208190526040902054811115610dd95760405162461bcd60e51b8152602060048201526014602482015273496e73756666696369656e742062616c616e636560601b60448201526064016107a4565b610de43330836113c5565b336000908152600c602052604090205460ff16610e5657600b805460018181019092557f0175b7a638427703f0dbe7bb9bbf987a2551717b34e79f33b5b1008d1fa01db90180546001600160a01b031916339081179091556000908152600c60205260409020805460ff191690911790555b336000908152600a60205260408120805490918391839190610e79908490611fe2565b90915550504260018201819055610e94906201518090611fe2565b816002018190555081600d6000828254610eae9190611fe2565b9091555050805460405133917f1449c6dd7851abc30abf37f57715f492010519147cc2652fbc38202c18a6ee909161088991868252602082015260400190565b60003361071b8185856113c5565b610f04611424565b3360009081526010602052604090205460ff16610f5c5760405162461bcd60e51b81526020600482015260166024820152752737ba1030baba3437b934bd32b2103932b630bcb2b960511b60448201526064016107a4565b6000610f6e655af3107a40008361203a565b905060006064610f7f60018461203a565b610f899190612051565b90506000610f978284611fe2565b905080610fb9866001600160a01b031660009081526020819052604090205490565b10156110075760405162461bcd60e51b815260206004820152601a60248201527f506179657220696e73756666696369656e742062616c616e636500000000000060448201526064016107a4565b6110128533856113c5565b61101c8583611579565b604080518481526020810184905233916001600160a01b038816917f6b42d8401f707f076f558f1ea157a3d6393f4b118d75586f068a85b0873ba2a7910160405180910390a3505050610cb56001600955565b611077611424565b6000606461108660018661203a565b6110909190612051565b9050600061109e8286611fe2565b336000908152602081905260409020549091508111156110f75760405162461bcd60e51b8152602060048201526014602482015273496e73756666696369656e742062616c616e636560601b60448201526064016107a4565b6111023387876113c5565b61110c3383611579565b856001600160a01b0316336001600160a01b03167ff90d96a1847fcce94648109ffc548e4eb9f3d4bfb0ef4d577d704c9edcf709a287878760405161115393929190612073565b60405180910390a35050610c1f6001600955565b8342111561118b5760405163313c898160e11b8152600481018590526024016107a4565b60007f6e71edae12b1b97f4d1f60370fef10105fa2faae0126114a169c64845d6126c98888886111d88c6001600160a01b0316600090815260076020526040902080546001810190915590565b6040805160208101969096526001600160a01b0394851690860152929091166060840152608083015260a082015260c0810186905260e0016040516020818303038152906040528051906020012090506000611233826116be565b90506000611243828787876116eb565b9050896001600160a01b0316816001600160a01b03161461128a576040516325c0072360e11b81526001600160a01b0380831660048301528b1660248201526044016107a4565b6112958a8a8a61133a565b50505050505050505050565b60006112ac60025490565b6000036112b95750600090565b600254600d546112cb9061271061203a565b6108a99190612051565b6112dd6115af565b6001600160a01b03811661130757604051631e4fbdf760e01b8152600060048201526024016107a4565b61089c81611612565b600b818154811061132057600080fd5b6000918252602090912001546001600160a01b0316905081565b6113478383836001611719565b505050565b6001600160a01b03838116600090815260016020908152604080832093861683529290522054600019811015610c1f57818110156113b657604051637dc7a0d960e11b81526001600160a01b038416600482015260248101829052604481018390526064016107a4565b610c1f84848484036000611719565b6001600160a01b0383166113ef57604051634b637e8f60e11b8152600060048201526024016107a4565b6001600160a01b0382166114195760405163ec442f0560e01b8152600060048201526024016107a4565b6113478383836117ee565b60026009540361144757604051633ee5aeb560e01b815260040160405180910390fd5b6002600955565b6000306001600160a01b037f0000000000000000000000000000000000000000000000000000000000000000161480156114a757507f000000000000000000000000000000000000000000000000000000000000000046145b156114d157507f000000000000000000000000000000000000000000000000000000000000000090565b6108a9604080517f8b73c3c69bb8fe3d512ecc4cf759cc79239f7b179b0ffacaa9a75d522b39400f60208201527f0000000000000000000000000000000000000000000000000000000000000000918101919091527f000000000000000000000000000000000000000000000000000000000000000060608201524660808201523060a082015260009060c00160405160208183030381529060405280519060200120905090565b6001600160a01b0382166115a357604051634b637e8f60e11b8152600060048201526024016107a4565b610cb5826000836117ee565b6008546001600160a01b03163314610c375760405163118cdaa760e01b81523360048201526024016107a4565b6001600160a01b0382166116065760405163ec442f0560e01b8152600060048201526024016107a4565b610cb5600083836117ee565b600880546001600160a01b038381166001600160a01b0319831681179093556040519116919082907f8be0079c531659141344cd1fd0a4f28419497f9722a3daafe3b4186f6b6457e090600090a35050565b60606108a97f00000000000000000000000000000000000000000000000000000000000000006005611918565b60606108a97f00000000000000000000000000000000000000000000000000000000000000006006611918565b60006107216116cb61144e565b8360405161190160f01b8152600281019290925260228201526042902090565b6000806000806116fd888888886119c3565b92509250925061170d8282611a92565b50909695505050505050565b6001600160a01b0384166117435760405163e602df0560e01b8152600060048201526024016107a4565b6001600160a01b03831661176d57604051634a1406b160e11b8152600060048201526024016107a4565b6001600160a01b0380851660009081526001602090815260408083209387168352929052208290558015610c1f57826001600160a01b0316846001600160a01b03167f8c5be1e5ebec7d5bd14f71427d1e84f3dd0314c0f7b2291e5b200ac8c7c3b925846040516117e091815260200190565b60405180910390a350505050565b6001600160a01b03831661181957806002600082825461180e9190611fe2565b9091555061188b9050565b6001600160a01b0383166000908152602081905260409020548181101561186c5760405163391434e360e21b81526001600160a01b038516600482015260248101829052604481018390526064016107a4565b6001600160a01b03841660009081526020819052604090209082900390555b6001600160a01b0382166118a7576002805482900390556118c6565b6001600160a01b03821660009081526020819052604090208054820190555b816001600160a01b0316836001600160a01b03167fddf252ad1be2c89b69c2b068fc378daa952ba7f163c4a11628f55a4df523b3ef8360405161190b91815260200190565b60405180910390a3505050565b606060ff83146119325761192b83611b4b565b9050610721565b81805461193e90611f7f565b80601f016020809104026020016040519081016040528092919081815260200182805461196a90611f7f565b80156119b75780601f1061198c576101008083540402835291602001916119b7565b820191906000526020600020905b81548152906001019060200180831161199a57829003601f168201915b50505050509050610721565b600080807f7fffffffffffffffffffffffffffffff5d576e7357a4501ddfe92f46681b20a08411156119fe5750600091506003905082611a88565b604080516000808252602082018084528a905260ff891692820192909252606081018790526080810186905260019060a0016020604051602081039080840390855afa158015611a52573d6000803e3d6000fd5b5050604051601f1901519150506001600160a01b038116611a7e57506000925060019150829050611a88565b9250600091508190505b9450945094915050565b6000826003811115611aa657611aa66120a9565b03611aaf575050565b6001826003811115611ac357611ac36120a9565b03611ae15760405163f645eedf60e01b815260040160405180910390fd5b6002826003811115611af557611af56120a9565b03611b165760405163fce698f760e01b8152600481018290526024016107a4565b6003826003811115611b2a57611b2a6120a9565b03610cb5576040516335e2f38360e21b8152600481018290526024016107a4565b60606000611b5883611b8a565b604080516020808252818301909252919250600091906020820181803683375050509182525060208101929092525090565b600060ff8216601f81111561072157604051632cd44ac360e21b815260040160405180910390fd5b6000815180845260005b81811015611bd857602081850181015186830182015201611bbc565b506000602082860101526020601f19601f83011685010191505092915050565b602081526000611c0b6020830184611bb2565b9392505050565b80356001600160a01b0381168114611c2957600080fd5b919050565b60008060408385031215611c4157600080fd5b611c4a83611c12565b946020939093013593505050565b600060208284031215611c6a57600080fd5b611c0b82611c12565b600080600060608486031215611c8857600080fd5b611c9184611c12565b9250611c9f60208501611c12565b9150604084013590509250925092565b600060208284031215611cc157600080fd5b5035919050565b60008083601f840112611cda57600080fd5b50813567ffffffffffffffff811115611cf257600080fd5b6020830191508360208260051b8501011115611d0d57600080fd5b9250929050565b60008060008060408587031215611d2a57600080fd5b843567ffffffffffffffff80821115611d4257600080fd5b611d4e88838901611cc8565b90965094506020870135915080821115611d6757600080fd5b50611d7487828801611cc8565b95989497509550505050565b60008060408385031215611d9357600080fd5b611d9c83611c12565b915060208301358015158114611db157600080fd5b809150509250929050565b60ff60f81b881681526000602060e081840152611ddc60e084018a611bb2565b8381036040850152611dee818a611bb2565b606085018990526001600160a01b038816608086015260a0850187905284810360c0860152855180825283870192509083019060005b81811015611e4057835183529284019291840191600101611e24565b50909c9b505050505050505050505050565b60008060008060608587031215611e6857600080fd5b611e7185611c12565b935060208501359250604085013567ffffffffffffffff80821115611e9557600080fd5b818701915087601f830112611ea957600080fd5b813581811115611eb857600080fd5b886020828501011115611eca57600080fd5b95989497505060200194505050565b600080600080600080600060e0888a031215611ef457600080fd5b611efd88611c12565b9650611f0b60208901611c12565b95506040880135945060608801359350608088013560ff81168114611f2f57600080fd5b9699959850939692959460a0840135945060c09093013592915050565b60008060408385031215611f5f57600080fd5b611f6883611c12565b9150611f7660208401611c12565b90509250929050565b600181811c90821680611f9357607f821691505b602082108103611fb357634e487b7160e01b600052602260045260246000fd5b50919050565b634e487b7160e01b600052601160045260246000fd5b8181038181111561072157610721611fb9565b8082018082111561072157610721611fb9565b60006001820161200757612007611fb9565b5060010190565b634e487b7160e01b600052604160045260246000fd5b634e487b7160e01b600052603260045260246000fd5b808202811582820484141761072157610721611fb9565b60008261206e57634e487b7160e01b600052601260045260246000fd5b500490565b83815260406020820152816040820152818360608301376000818301606090810191909152601f909201601f1916010192915050565b634e487b7160e01b600052602160045260246000fdfea264697066735822122052d3b9480f6a78a0e8742c914c405413156857c2fd99be49948f30704d692c4964736f6c63430008140033",
  "linkReferences": {},
  "deployedLinkReferences": {}
}