{
  "_format": "hh-sol-artifact-1",
  "contractName": "MeshGovernance",
  "sourceName": "contracts/MeshGovernance.sol",
  "abi": [
    {
      "inputs": [
        {
          "internalType": "address",
          "name": "_token",
          "type": "address"
        }
      ],
      "stateMutability": "nonpayable",
      "type": "constructor"
    },
    {
      "inputs": [
        {
          "internalType": "address",
          "name": "owner",
          "type": "address"
        }
      ],
      "name": "OwnableInvalidOwner",
      "type": "error"
    },
    {
      "inputs": [
        {
          "internalType": "address",
          "name": "account",
          "type": "address"
        }
      ],
      "name": "OwnableUnauthorizedAccount",
      "type": "error"
    },
    {
      "inputs": [],
      "name": "ReentrancyGuardReentrantCall",
      "type": "error"
    },
    {
      "anonymous": false,
      "inputs": [
        {
          "indexed": true,
          "internalType": "address",
          "name": "executor",
          "type": "address"
        },
        {
          "indexed": false,
          "internalType": "bool",
          "name": "authorized",
          "type": "bool"
        }
      ],
      "name": "ExecutorAuthorized",
      "type": "event"
    },
    {
      "anonymous": false,
      "inputs": [
        {
          "indexed": true,
          "internalType": "address",
          "name": "previousOwner",
          "type": "address"
        },
        {
          "indexed": true,
          "internalType": "address",
          "name": "newOwner",
          "type": "address"
        }
      ],
      "name": "OwnershipTransferred",
      "type": "event"
    },
    {
      "anonymous": false,
      "inputs": [
        {
          "indexed": true,
          "internalType": "uint256",
          "name": "proposalId",
          "type": "uint256"
        },
        {
          "indexed": true,
          "internalType": "address",
          "name": "proposer",
          "type": "address"
        },
        {
          "indexed": false,
          "internalType": "string",
          "name": "title",
          "type": "string"
        },
        {
          "indexed": false,
          "internalType": "uint256",
          "name": "startTime",
          "type": "uint256"
        },
        {
          "indexed": false,
          "internalType": "uint256",
          "name": "endTime",
          "type": "uint256"
        }
      ],
      "name": "ProposalCreated",
      "type": "event"
    },
    {
      "anonymous": false,
      "inputs": [
        {
          "indexed": true,
          "internalType": "uint256",
          "name": "proposalId",
          "type": "uint256"
        }
      ],
      "name": "ProposalExecuted",
      "type": "event"
    },
    {
      "anonymous": false,
      "inputs": [
        {
          "indexed": true,
          "internalType": "uint256",
          "name": "proposalId",
          "type": "uint256"
        },
        {
          "indexed": false,
          "internalType": "enum MeshGovernance.ProposalState",
          "name": "newState",
          "type": "uint8"
        }
      ],
      "name": "ProposalStateChanged",
      "type": "event"
    },
    {
      "anonymous": false,
      "inputs": [
        {
          "indexed": true,
          "internalType": "uint256",
          "name": "proposalId",
          "type": "uint256"
        },
        {
          "indexed": true,
          "internalType": "address",
          "name": "voter",
          "type": "address"
        },
        {
          "indexed": false,
          "internalType": "uint8",
          "name": "support",
          "type": "uint8"
        },
        {
          "indexed": false,
          "internalType": "uint256",
          "name": "votingPower",
          "type": "uint256"
        }
      ],
      "name": "VoteCast",
      "type": "event"
    },
    {
      "inputs": [],
      "name": "MAX_PROPOSAL_DURATION",
      "outputs": [
        {
          "internalType": "uint256",
          "name": "",
          "type": "uint256"
        }
      ],
      "stateMutability": "view",
      "type": "function"
    },
    {
      "inputs": [],
      "name": "MIN_PROPOSAL_DURATION",
      "outputs": [
        {
          "internalType": "uint256",
          "name": "",
          "type": "uint256"
        }
      ],
      "stateMutability": "view",
      "type": "function"
    },
    {
      "inputs": [],
      "name": "QUORUM_BASIS_POINTS",
      "outputs": [
        {
          "internalType": "uint256",
          "name": "",
          "type": "uint256"
        }
      ],
      "stateMutability": "view",
      "type": "function"
    },
    {
      "inputs": [],
      "name": "THRESHOLD_BASIS_POINTS",
      "outputs": [
        {
          "internalType": "uint256",
          "name": "",
          "type": "uint256"
        }
      ],
      "stateMutability": "view",
      "type": "function"
    },
    {
      "inputs": [
        {
          "internalType": "address",
          "name": "",
          "type": "address"
        }
      ],
      "name": "authorizedExecutors",
      "outputs": [
        {
          "internalType": "bool",
          "name": "",
          "type": "bool"
        }
      ],
      "stateMutability": "view",
      "type": "function"
    },
    {
      "inputs": [
        {
          "internalType": "uint256",
          "name": "proposalId",
          "type": "uint256"
        }
      ],
      "name": "canExecute",
      "outputs": [
        {
          "internalType": "bool",
          "name": "",
          "type": "bool"
        }
      ],
      "stateMutability": "view",
      "type": "function"
    },
    {
      "inputs": [
        {
          "internalType": "uint256",
          "name": "proposalId",
          "type": "uint256"
        },
        {
          "internalType": "uint8",
          "name": "support",
          "type": "uint8"
        }
      ],
      "name": "castVote",
      "outputs": [],
      "stateMutability": "nonpayable",
      "type": "function"
    },
    {
      "inputs": [
        {
          "internalType": "string",
          "name": "title",
          "type": "string"
        },
        {
          "internalType": "string",
          "name": "description",
          "type": "string"
        },
        {
          "internalType": "uint256",
          "name": "duration",
          "type": "uint256"
        }
      ],
      "name": "createProposal",
      "outputs": [
        {
          "internalType": "uint256",
          "name": "",
          "type": "uint256"
        }
      ],
      "stateMutability": "nonpayable",
      "type": "function"
    },
    {
      "inputs": [
        {
          "internalType": "uint256",
          "name": "proposalId",
          "type": "uint256"
        }
      ],
      "name": "executeProposal",
      "outputs": [],
      "stateMutability": "nonpayable",
      "type": "function"
    },
    {
      "inputs": [
        {
          "internalType": "uint256",
          "name": "proposalId",
          "type": "uint256"
        }
      ],
      "name": "getProposal",
      "outputs": [
        {
          "internalType": "uint256",
          "name": "id",
          "type": "uint256"
        },
        {
          "internalType": "string",
          "name": "title",
          "type": "string"
        },
        {
          "internalType": "string",
          "name": "description",
          "type": "string"
        },
        {
          "internalType": "address",
          "name": "proposer",
          "type": "address"
        },
        {
          "internalType": "uint256",
          "name": "startTime",
          "type": "uint256"
        },
        {
          "internalType": "uint256",
          "name": "endTime",
          "type": "uint256"
        },
        {
          "internalType": "uint256",
          "name": "yesVotes",
          "type": "uint256"
        },
        {
          "internalType": "uint256",
          "name": "noVotes",
          "type": "uint256"
        },
        {
          "internalType": "uint256",
          "name": "abstainVotes",
          "type": "uint256"
        },
        {
          "internalType": "uint256",
          "name": "totalVotingPower",
          "type": "uint256"
        },
        {
          "internalType": "bool",
          "name": "executed",
          "type": "bool"
        },
        {
          "internalType": "enum MeshGovernance.ProposalState",
          "name": "state",
          "type": "uint8"
        }
      ],
      "stateMutability": "view",
      "type": "function"
    },
    {
      "inputs": [
        {
          "internalType": "uint256",
          "name": "proposalId",
          "type": "uint256"
        },
        {
          "internalType": "address",
          "name": "voter",
          "type": "address"
        }
      ],
      "name": "getVote",
      "outputs": [
        {
          "internalType": "bool",
          "name": "hasVoted",
          "type": "bool"
        },
        {
          "internalType": "uint8",
          "name": "support",
          "type": "uint8"
        },
        {
          "internalType": "uint256",
          "name": "votingPower",
          "type": "uint256"
        }
      ],
      "stateMutability": "view",
      "type": "function"
    },
    {
      "inputs": [
        {
          "internalType": "address",
          "name": "voter",
          "type": "address"
        }
      ],
      "name": "getVotingPower",
      "outputs": [
        {
          "internalType": "uint256",
          "name": "",
          "type": "uint256"
        }
      ],
      "stateMutability": "view",
      "type": "function"
    },
    {
      "inputs": [],
      "name": "owner",
      "outputs": [
        {
          "internalType": "address",
          "name": "",
          "type": "address"
        }
      ],
      "stateMutability": "view",
      "type": "function"
    },
    {
      "inputs": [],
      "name": "proposalCount",
      "outputs": [
        {
          "internalType": "uint256",
          "name": "",
          "type": "uint256"
        }
      ],
      "stateMutability": "view",
      "type": "function"
    },
    {
      "inputs": [
        {
          "internalType": "uint256",
          "name": "",
          "type": "uint256"
        }
      ],
      "name": "proposals",
      "outputs": [
        {
          "internalType": "uint256",
          "name": "id",
          "type": "uint256"
        },
        {
          "internalType": "string",
          "name": "title",
          "type": "string"
        },
        {
          "internalType": "string",
          "name": "description",
          "type": "string"
        },
        {
          "internalType": "address",
          "name": "proposer",
          "type": "address"
        },
        {
          "internalType": "uint256",
          "name": "startTime",
          "type": "uint256"
        },
        {
          "internalType": "uint256",
          "name": "endTime",
          "type": "uint256"
        },
        {
          "internalType": "uint256",
          "name": "yesVotes",
          "type": "uint256"
        },
        {
          "internalType": "uint256",
          "name": "noVotes",
          "type": "uint256"
        },
        {
          "internalType": "uint256",
          "name": "abstainVotes",
          "type": "uint256"
        },
        {
          "internalType": "uint256",
          "name": "totalVotingPower",
          "type": "uint256"
        },
        {
          "internalType": "bool",
          "name": "executed",
          "type": "bool"
        },
        {
          "internalType": "enum MeshGovernance.ProposalState",
          "name": "state",
          "type": "uint8"
        }
      ],
      "stateMutability": "view",
      "type": "function"
    },
    {
      "inputs": [
        {
          "internalType": "uint256",
          "name": "proposalId",
          "type": "uint256"
        }
      ],
      "name": "rejectProposal",
      "outputs": [],
      "stateMutability": "nonpayable",
      "type": "function"
    },
    {
      "inputs": [],
      "name": "renounceOwnership",
      "outputs": [],
      "stateMutability": "nonpayable",
      "type": "function"
    },
    {
      "inputs": [
        {
          "internalType": "address",
          "name": "executor",
          "type": "address"
        },
        {
          "internalType": "bool",
          "name": "authorized",
          "type": "bool"
        }
      ],
      "name": "setExecutorAuthorized",
      "outputs": [],
      "stateMutability": "nonpayable",
      "type": "function"
    },
    {
      "inputs": [
        {
          "internalType": "uint256",
          "name": "newDelay",
          "type": "uint256"
        }
      ],
      "name": "setVotingDelay",
      "outputs": [],
      "stateMutability": "nonpayable",
      "type": "function"
    },
    {
      "inputs": [
        {
          "internalType": "uint256",
          "name": "newPeriod",
          "type": "uint256"
        }
      ],
      "name": "setVotingPeriod",
      "outputs": [],
      "stateMutability": "nonpayable",
      "type": "function"
    },
    {
      "inputs": [],
      "name": "token",
      "outputs": [
        {
          "internalType": "contract X0TToken",
          "name": "",
          "type": "address"
        }
      ],
      "stateMutability": "view",
      "type": "function"
    },
    {
      "inputs": [
        {
          "internalType": "address",
          "name": "newOwner",
          "type": "address"
        }
      ],
      "name": "transferOwnership",
      "outputs": [],
      "stateMutability": "nonpayable",
      "type": "function"
    },
    {
      "inputs": [
        {
          "internalType": "uint256",
          "name": "",
          "type": "uint256"
        },
        {
          "internalType": "address",
          "name": "",
          "type": "address"
        }
      ],
      "name": "votes",
      "outputs": [
        {
          "internalType": "bool",
          "name": "hasVoted",
          "type": "bool"
        },
        {
          "internalType": "uint8",
          "name": "support",
          "type": "uint8"
        },
        {
          "internalType": "uint256",
          "name": "votingPower",
          "type": "uint256"
        }
      ],
      "stateMutability": "view",
      "type": "function"
    },
    {
      "inputs": [],
      "name": "votingDelay",
      "outputs": [
        {
          "internalType": "uint256",
          "name": "",
          "type": "uint256"
        }
      ],
      "stateMutability": "view",
      "type": "function"
    },
    {
      "inputs": [],
      "name": "votingPeriod",
      "outputs": [
        {
          "internalType": "uint256",
          "name": "",
          "type": "uint256"
        }
      ],
      "stateMutability": "view",
      "type": "function"
    }
  ],
  "bytecode": "0x60806040523480156200001157600080fd5b50604051620020363803806200203683398101604081905262000034916200010a565b33806200005b57604051631e4fbdf760e01b81526000600482015260240160405180910390fd5b6200006681620000ba565b506001808055600280546001600160a01b0319166001600160a01b039390931692909217909155610e106007556203f480600855336000908152600560205260409020805460ff191690911790556200013c565b600080546001600160a01b038381166001600160a01b0319831681178455604051919092169283917f8be0079c531659141344cd1fd0a4f28419497f9722a3daafe3b4186f6b6457e09190a35050565b6000602082840312156200011d57600080fd5b81516001600160a01b03811681146200013557600080fd5b9392505050565b611eea806200014c6000396000f3fe608060405234801561001057600080fd5b50600436106101735760003560e01c8063bb4d4436116100de578063c7f758a811610097578063da35c66411610071578063da35c664146103b7578063ea0217cf146103c0578063f2fde38b146103d3578063fc0c546a146103e657600080fd5b8063c7f758a814610352578063cc63604a14610365578063d23254b41461037857600080fd5b8063bb4d443614610297578063bc13e995146102aa578063bc28d878146102b3578063bc3f931f146102c6578063bd96821614610348578063befbbfe1146102aa57600080fd5b8063679d86a711610130578063679d86a71461020757806370b0f6601461023a578063715018a61461024d5780638da5cb5b14610255578063944ee22d1461027a578063ab413c8c1461028457600080fd5b8063013cf08b1461017857806302a251a3146101ac5780630ce0ebf4146101c35780630d61b519146101d65780633932abb1146101eb57806356781388146101f4575b600080fd5b61018b610186366004611959565b6103f9565b6040516101a39c9b9a999897969594939291906119f0565b60405180910390f35b6101b560085481565b6040519081526020016101a3565b6101b56101d1366004611b20565b610575565b6101e96101e4366004611959565b61088e565b005b6101b560075481565b6101e9610202366004611b8d565b610ba4565b61022a610215366004611bdf565b60056020526000908152604090205460ff1681565b60405190151581526020016101a3565b6101e9610248366004611959565b610f79565b6101e9610f86565b6000546001600160a01b03165b6040516001600160a01b0390911681526020016101a3565b6101b56201518081565b6101e9610292366004611c01565b610f9a565b6101b56102a5366004611bdf565b611001565b6101b561138881565b6101e96102c1366004611959565b611076565b6103296102d4366004611c32565b60009182526004602090815260408084206001600160a01b03939093168452918152918190208151606081018352815460ff808216151580845261010090920416948201859052600190920154920182905292565b60408051931515845260ff9092166020840152908201526060016101a3565b6101b562278d0081565b61018b610360366004611959565b6112b9565b61022a610373366004611959565b611519565b610329610386366004611c32565b60046020908152600092835260408084209091529082529020805460019091015460ff808316926101009004169083565b6101b560065481565b6101e96103ce366004611959565b611891565b6101e96103e1366004611bdf565b61189e565b600254610262906001600160a01b031681565b6003602052600090815260409020805460018201805491929161041b90611c5e565b80601f016020809104026020016040519081016040528092919081815260200182805461044790611c5e565b80156104945780601f1061046957610100808354040283529160200191610494565b820191906000526020600020905b81548152906001019060200180831161047757829003601f168201915b5050505050908060020180546104a990611c5e565b80601f01602080910402602001604051908101604052809291908181526020018280546104d590611c5e565b80156105225780601f106104f757610100808354040283529160200191610522565b820191906000526020600020905b81548152906001019060200180831161050557829003601f168201915b50505060038401546004850154600586015460068701546007880154600889015460098a0154600a909a015498996001600160a01b03909616989497509295509093909260ff808216916101009004168c565b6000808451116105bd5760405162461bcd60e51b815260206004820152600e60248201526d151a5d1b19481c995c5d5a5c995960921b60448201526064015b60405180910390fd5b620151808210156106055760405162461bcd60e51b8152602060048201526012602482015271111d5c985d1a5bdb881d1bdbc81cda1bdc9d60721b60448201526064016105b4565b62278d0082111561064c5760405162461bcd60e51b81526020600482015260116024820152704475726174696f6e20746f6f206c6f6e6760781b60448201526064016105b4565b600061065733611001565b90506000811161069b5760405162461bcd60e51b815260206004820152600f60248201526e2737903b37ba34b733903837bbb2b960891b60448201526064016105b4565b600680549060006106ab83611cae565b90915550506006546007546000906106c39042611cc7565b905060006106d18683611cc7565b9050604051806101800160405280848152602001898152602001888152602001336001600160a01b031681526020018381526020018281526020016000815260200160008152602001600081526020016000815260200160001515815260200160006004811115610744576107446119b8565b905260008481526003602090815260409091208251815590820151600182019061076e9082611d25565b50604082015160028201906107839082611d25565b5060608201516003820180546001600160a01b0319166001600160a01b03909216919091179055608082015160048083019190915560a0830151600583015560c0830151600683015560e083015160078301556101008084015160088401556101208401516009840155610140840151600a8401805460ff198116921515928317825561016087015194919361ffff1990911661ff00199093169290921791908490811115610834576108346119b8565b0217905550905050336001600160a01b0316837f6c98a8c940418b35614f0cd02412d5c9606faff474cbb6cdd6640ba5d1a9f06b8a858560405161087a93929190611de5565b60405180910390a350909695505050505050565b6000811180156108a057506006548111155b6108bc5760405162461bcd60e51b81526004016105b490611e0a565b600081815260036020526040902060058101544210156109115760405162461bcd60e51b815260206004820152601060248201526f159bdd1a5b99c81b9bdd08195b99195960821b60448201526064016105b4565b600a81015460ff16156109595760405162461bcd60e51b815260206004820152601060248201526f105b1c9958591e48195e1958dd5d195960821b60448201526064016105b4565b6001600a820154610100900460ff166004811115610979576109796119b8565b14806109a257506002600a820154610100900460ff1660048111156109a0576109a06119b8565b145b6109df5760405162461bcd60e51b815260206004820152600e60248201526d43616e6e6f74206578656375746560901b60448201526064016105b4565b600254604080516340bd8e6960e11b815290516000926001600160a01b03169163817b1cd29160048083019260209291908290030181865afa158015610a29573d6000803e3d6000fd5b505050506040513d601f19601f82011682018060405250810190610a4d9190611e34565b90506000612710610a6061138884611e4d565b610a6a9190611e64565b90508083600901541015610ab15760405162461bcd60e51b815260206004820152600e60248201526d145d5bdc9d5b481b9bdd081b595d60921b60448201526064016105b4565b600083600701548460060154610ac79190611cc7565b90508015610b38576000818560060154612710610ae49190611e4d565b610aee9190611e64565b9050611388811015610b365760405162461bcd60e51b8152602060048201526011602482015270151a1c995cda1bdb19081b9bdd081b595d607a1b60448201526064016105b4565b505b600a8401805461ffff19166102011790556040518590600080516020611e9583398151915290610b6a90600290611e86565b60405180910390a260405185907f712ae1383f79ac853f8d882153778e0260ef8f03b504e2866e0593e04d2b291f90600090a25050505050565b60028160ff161115610be75760405162461bcd60e51b815260206004820152600c60248201526b496e76616c696420766f746560a01b60448201526064016105b4565b600082118015610bf957506006548211155b610c155760405162461bcd60e51b81526004016105b490611e0a565b60008281526003602052604090206004810154421015610c6c5760405162461bcd60e51b8152602060048201526012602482015271159bdd1a5b99c81b9bdd081cdd185c9d195960721b60448201526064016105b4565b80600501544210610cae5760405162461bcd60e51b815260206004820152600c60248201526b159bdd1a5b99c8195b99195960a21b60448201526064016105b4565b6001600a820154610100900460ff166004811115610cce57610cce6119b8565b1480610cf757506000600a820154610100900460ff166004811115610cf557610cf56119b8565b145b610d395760405162461bcd60e51b815260206004820152601360248201527250726f706f73616c206e6f742061637469766560681b60448201526064016105b4565b600083815260046020908152604080832033845290915290205460ff1615610d935760405162461bcd60e51b815260206004820152600d60248201526c105b1c9958591e481d9bdd1959609a1b60448201526064016105b4565b6000610d9e33611001565b905060008111610de25760405162461bcd60e51b815260206004820152600f60248201526e2737903b37ba34b733903837bbb2b960891b60448201526064016105b4565b60408051606081018252600180825260ff868116602080850182815285870188815260008c8152600484528881203382529093529690912094518554915161ffff1990921690151561ff00191617610100919093160291909117835592519181019190915582919003610e6e5780836006016000828254610e639190611cc7565b90915550610ea79050565b8360ff16600003610e8d5780836007016000828254610e639190611cc7565b80836008016000828254610ea19190611cc7565b90915550505b80836009016000828254610ebb9190611cc7565b9091555060009050600a840154610100900460ff166004811115610ee157610ee16119b8565b148015610ef2575082600401544210155b15610f3257600a8301805461ff0019166101001790556040518590600080516020611e9583398151915290610f2990600190611e86565b60405180910390a25b6040805160ff8616815260208101839052339187917fb83d25c6a5d258561330739951487acb4bd09ba5190b5d32c4f261817d906792910160405180910390a35050505050565b610f816118dc565b600755565b610f8e6118dc565b610f986000611909565b565b610fa26118dc565b6001600160a01b038216600081815260056020908152604091829020805460ff191685151590811790915591519182527f61e59429ef81596566b5f5d75085a25d4043be4dd2ba28cc98d8677718e6d0c3910160405180910390a25050565b60025460405163603a39fb60e11b81526001600160a01b038381166004830152600092169063c07473f690602401602060405180830381865afa15801561104c573d6000803e3d6000fd5b505050506040513d601f19601f820116820180604052508101906110709190611e34565b92915050565b60008111801561108857506006548111155b6110a45760405162461bcd60e51b81526004016105b490611e0a565b600081815260036020526040902060058101544210156110f95760405162461bcd60e51b815260206004820152601060248201526f159bdd1a5b99c81b9bdd08195b99195960821b60448201526064016105b4565b6001600a820154610100900460ff166004811115611119576111196119b8565b146111535760405162461bcd60e51b815260206004820152600a6024820152694e6f742061637469766560b01b60448201526064016105b4565b600254604080516340bd8e6960e11b815290516000926001600160a01b03169163817b1cd29160048083019260209291908290030181865afa15801561119d573d6000803e3d6000fd5b505050506040513d601f19601f820116820180604052508101906111c19190611e34565b905060006127106111d461138884611e4d565b6111de9190611e64565b9050808360090154101561122c57600a8301805461ff0019166103001790556040518490600080516020611e958339815191529061121e90600390611e86565b60405180910390a250505050565b6000836007015484600601546112429190611cc7565b905080156112b257600081856006015461271061125f9190611e4d565b6112699190611e64565b90506113888110156112b057600a8501805461ff0019166103001790556040518690600080516020611e95833981519152906112a790600390611e86565b60405180910390a25b505b5050505050565b6000606080600080600080600080600080600080600360008f8152602001908152602001600020604051806101800160405290816000820154815260200160018201805461130690611c5e565b80601f016020809104026020016040519081016040528092919081815260200182805461133290611c5e565b801561137f5780601f106113545761010080835404028352916020019161137f565b820191906000526020600020905b81548152906001019060200180831161136257829003601f168201915b5050505050815260200160028201805461139890611c5e565b80601f01602080910402602001604051908101604052809291908181526020018280546113c490611c5e565b80156114115780601f106113e657610100808354040283529160200191611411565b820191906000526020600020905b8154815290600101906020018083116113f457829003601f168201915b505050918352505060038201546001600160a01b0316602082015260048083015460408301526005830154606083015260068301546080830152600783015460a0830152600883015460c0830152600983015460e0830152600a83015460ff80821615156101008086019190915261012090940193909104169081111561149a5761149a6119b8565b60048111156114ab576114ab6119b8565b815250509050806000015181602001518260400151836060015184608001518560a001518660c001518760e001518861010001518961012001518a61014001518b61016001519c509c509c509c509c509c509c509c509c509c509c509c505091939597999b5091939597999b565b6000811580611529575060065482115b1561153657506000919050565b600060036000848152602001908152602001600020604051806101800160405290816000820154815260200160018201805461157190611c5e565b80601f016020809104026020016040519081016040528092919081815260200182805461159d90611c5e565b80156115ea5780601f106115bf576101008083540402835291602001916115ea565b820191906000526020600020905b8154815290600101906020018083116115cd57829003601f168201915b5050505050815260200160028201805461160390611c5e565b80601f016020809104026020016040519081016040528092919081815260200182805461162f90611c5e565b801561167c5780601f106116515761010080835404028352916020019161167c565b820191906000526020600020905b81548152906001019060200180831161165f57829003601f168201915b505050918352505060038201546001600160a01b0316602082015260048083015460408301526005830154606083015260068301546080830152600783015460a0830152600883015460c0830152600983015460e0830152600a83015460ff808216151561010080860191909152610120909401939091041690811115611705576117056119b8565b6004811115611716576117166119b8565b8152505090508060a001514210156117315750600092915050565b806101400151156117455750600092915050565b6001816101600151600481111561175e5761175e6119b8565b14158015611783575060028161016001516004811115611780576117806119b8565b14155b156117915750600092915050565b600254604080516340bd8e6960e11b815290516000926001600160a01b03169163817b1cd29160048083019260209291908290030181865afa1580156117db573d6000803e3d6000fd5b505050506040513d601f19601f820116820180604052508101906117ff9190611e34565b9050600061271061181261138884611e4d565b61181c9190611e64565b905080836101200151101561183657506000949350505050565b60008360e001518460c0015161184c9190611cc7565b9050806000036118625750600095945050505050565b6000818560c001516127106118779190611e4d565b6118819190611e64565b6113881115979650505050505050565b6118996118dc565b600855565b6118a66118dc565b6001600160a01b0381166118d057604051631e4fbdf760e01b8152600060048201526024016105b4565b6118d981611909565b50565b6000546001600160a01b03163314610f985760405163118cdaa760e01b81523360048201526024016105b4565b600080546001600160a01b038381166001600160a01b0319831681178455604051919092169283917f8be0079c531659141344cd1fd0a4f28419497f9722a3daafe3b4186f6b6457e09190a35050565b60006020828403121561196b57600080fd5b5035919050565b6000815180845260005b818110156119985760208185018101518683018201520161197c565b506000602082860101526020601f19601f83011685010191505092915050565b634e487b7160e01b600052602160045260246000fd5b600581106119ec57634e487b7160e01b600052602160045260246000fd5b9052565b60006101808e8352806020840152611a0a8184018f611972565b90508281036040840152611a1e818e611972565b91505060018060a01b038b1660608301528960808301528860a08301528760c08301528660e08301528561010083015284610120830152831515610140830152611a6c6101608301846119ce565b9d9c50505050505050505050505050565b634e487b7160e01b600052604160045260246000fd5b600082601f830112611aa457600080fd5b813567ffffffffffffffff80821115611abf57611abf611a7d565b604051601f8301601f19908116603f01168101908282118183101715611ae757611ae7611a7d565b81604052838152866020858801011115611b0057600080fd5b836020870160208301376000602085830101528094505050505092915050565b600080600060608486031215611b3557600080fd5b833567ffffffffffffffff80821115611b4d57600080fd5b611b5987838801611a93565b94506020860135915080821115611b6f57600080fd5b50611b7c86828701611a93565b925050604084013590509250925092565b60008060408385031215611ba057600080fd5b82359150602083013560ff81168114611bb857600080fd5b809150509250929050565b80356001600160a01b0381168114611bda57600080fd5b919050565b600060208284031215611bf157600080fd5b611bfa82611bc3565b9392505050565b60008060408385031215611c1457600080fd5b611c1d83611bc3565b915060208301358015158114611bb857600080fd5b60008060408385031215611c4557600080fd5b82359150611c5560208401611bc3565b90509250929050565b600181811c90821680611c7257607f821691505b602082108103611c9257634e487b7160e01b600052602260045260246000fd5b50919050565b634e487b7160e01b600052601160045260246000fd5b600060018201611cc057611cc0611c98565b5060010190565b8082018082111561107057611070611c98565b601f821115611d2057600081815260208120601f850160051c81016020861015611d015750805b601f850160051c820191505b818110156112b057828155600101611d0d565b505050565b815167ffffffffffffffff811115611d3f57611d3f611a7d565b611d5381611d4d8454611c5e565b84611cda565b602080601f831160018114611d885760008415611d705750858301515b600019600386901b1c1916600185901b1785556112b0565b600085815260208120601f198616915b82811015611db757888601518255948401946001909101908401611d98565b5085821015611dd55787850151600019600388901b60f8161c191681555b5050505050600190811b01905550565b606081526000611df86060830186611972565b60208301949094525060400152919050565b60208082526010908201526f125b9d985b1a59081c1c9bdc1bdcd85b60821b604082015260600190565b600060208284031215611e4657600080fd5b5051919050565b808202811582820484141761107057611070611c98565b600082611e8157634e487b7160e01b600052601260045260246000fd5b500490565b6020810161107082846119ce56fed6b3a81dd8b7dc419d8d0f20797397ea2eaba914386b89898aa638438803a1eca26469706673582212200dc5e2ad1d459826e8ddcd0cc224df17e9d8746577d3f15e9ae74e9b8f2bc01c64736f6c63430008140033",
  "linkReferences": {},
  "deployedLinkReferences": {}
}