{
  "_format": "hh-sol-artifact-1",
  "contractName": "MeshGovernance",
  "sourceName": "contracts/MeshGovernance.sol",
  "abi": [
    {
      "inputs": [
        {
          "internalType": "address",
          "name": "_token",
          "type": "address"
        }
      ],
      "stateMutability": "nonpayable",
      "type": "constructor"
    },
    {
      "inputs": [
        {
          "internalType": "address",
          "name": "owner",
          "type": "address"
        }
      ],
      "name": "OwnableInvalidOwner",
      "type": "error"
    },
    {
      "inputs": [
        {
          "internalType": "address",
          "name": "account",
          "type": "address"
        }
      ],
      "name": "OwnableUnauthorizedAccount",
      "type": "error"
    },
    {
      "inputs": [],
      "name": "ReentrancyGuardReentrantCall",
      "type": "error"
    },
    {
      "anonymous": false,
      "inputs": [
        {
          "indexed": true,
          "internalType": "address",
          "name": "executor",
          "type": "address"
        },
        {
          "indexed": false,
          "internalType": "bool",
          "name": "authorized",
          "type": "bool"
        }
      ],
      "name": "ExecutorAuthorized",
      "type": "event"
    },
    {
      "anonymous": false,
      "inputs": [
        {
          "indexed": true,
          "internalType": "address",
          "name": "previousOwner",
          "type": "address"
        },
        {
          "indexed": true,
          "internalType": "address",
          "name": "newOwner",
          "type": "address"
        }
      ],
      "name": "OwnershipTransferred",
      "type": "event"
    },
    {
      "anonymous": false,
      "inputs": [
        {
          "indexed": true,
          "internalType": "uint256",
          "name": "proposalId",
          "type": "uint256"
        },
        {
          "indexed": true,
          "internalType": "address",
          "name": "proposer",
          "type": "address"
        },
        {
          "indexed": false,
          "internalType": "string",
          "name": "title",
          "type": "string"
        },
        {
          "indexed": false,
          "internalType": "uint256",
          "name": "startTime",
          "type": "uint256"
        },
        {
          "indexed": false,
          "internalType": "uint256",
          "name": "endTime",
          "type": "uint256"
        }
      ],
      "name": "ProposalCreated",
      "type": "event"
    },
    {
      "anonymous": false,
      "inputs": [
        {
          "indexed": true,
          "internalType": "uint256",
          "name": "proposalId",
          "type": "uint256"
        }
      ],
      "name": "ProposalExecuted",
      "type": "event"
    },
    {
      "anonymous": false,
      "inputs": [
        {
          "indexed": true,
          "internalType": "uint256",
          "name": "proposalId",
          "type": "uint256"
        },
        {
          "indexed": false,
          "internalType": "enum MeshGovernance.ProposalState",
          "name": "newState",
          "type": "uint8"
        }
      ],
      "name": "ProposalStateChanged",
      "type": "event"
    },
    {
      "anonymous": false,
      "inputs": [
        {
          "indexed": true,
          "internalType": "uint256",
          "name": "proposalId",
          "type": "uint256"
        },
        {
          "indexed": true,
          "internalType": "address",
          "name": "voter",
          "type": "address"
        },
        {
          "indexed": false,
          "internalType": "uint8",
          "name": "support",
          "type": "uint8"
        },
        {
          "indexed": false,
          "internalType": "uint256",
          "name": "votingPower",
          "type": "uint256"
        }
      ],
      "name": "VoteCast",
      "type": "event"
    },
    {
      "inputs": [],
      "name": "MAX_PROPOSAL_DURATION",
      "outputs": [
        {
          "internalType": "uint256",
          "name": "",
          "type": "uint256"
        }
      ],
      "stateMutability": "view",
      "type": "function"
    },
    {
      "inputs": [],
      "name": "MIN_PROPOSAL_DURATION",
      "outputs": [
        {
          "internalType": "uint256",
          "name": "",
          "type": "uint256"
        }
      ],
      "stateMutability": "view",
      "type": "function"
    },
    {
      "inputs": [],
      "name": "MIN_PROPOSER_POWER",
      "outputs": [
        {
          "internalType": "uint256",
          "name": "",
          "type": "uint256"
        }
      ],
      "stateMutability": "view",
      "type": "function"
    },
    {
      "inputs": [],
      "name": "QUORUM_BASIS_POINTS",
      "outputs": [
        {
          "internalType": "uint256",
          "name": "",
          "type": "uint256"
        }
      ],
      "stateMutability": "view",
      "type": "function"
    },
    {
      "inputs": [],
      "name": "THRESHOLD_BASIS_POINTS",
      "outputs": [
        {
          "internalType": "uint256",
          "name": "",
          "type": "uint256"
        }
      ],
      "stateMutability": "view",
      "type": "function"
    },
    {
      "inputs": [
        {
          "internalType": "address",
          "name": "",
          "type": "address"
        }
      ],
      "name": "authorizedExecutors",
      "outputs": [
        {
          "internalType": "bool",
          "name": "",
          "type": "bool"
        }
      ],
      "stateMutability": "view",
      "type": "function"
    },
    {
      "inputs": [
        {
          "internalType": "uint256",
          "name": "proposalId",
          "type": "uint256"
        }
      ],
      "name": "canExecute",
      "outputs": [
        {
          "internalType": "bool",
          "name": "",
          "type": "bool"
        }
      ],
      "stateMutability": "view",
      "type": "function"
    },
    {
      "inputs": [
        {
          "internalType": "uint256",
          "name": "proposalId",
          "type": "uint256"
        },
        {
          "internalType": "uint8",
          "name": "support",
          "type": "uint8"
        }
      ],
      "name": "castVote",
      "outputs": [],
      "stateMutability": "nonpayable",
      "type": "function"
    },
    {
      "inputs": [
        {
          "internalType": "string",
          "name": "title",
          "type": "string"
        },
        {
          "internalType": "string",
          "name": "description",
          "type": "string"
        },
        {
          "internalType": "uint256",
          "name": "duration",
          "type": "uint256"
        }
      ],
      "name": "createProposal",
      "outputs": [
        {
          "internalType": "uint256",
          "name": "",
          "type": "uint256"
        }
      ],
      "stateMutability": "nonpayable",
      "type": "function"
    },
    {
      "inputs": [
        {
          "internalType": "uint256",
          "name": "proposalId",
          "type": "uint256"
        }
      ],
      "name": "executeProposal",
      "outputs": [],
      "stateMutability": "nonpayable",
      "type": "function"
    },
    {
      "inputs": [
        {
          "internalType": "uint256",
          "name": "proposalId",
          "type": "uint256"
        }
      ],
      "name": "getProposal",
      "outputs": [
        {
          "internalType": "uint256",
          "name": "id",
          "type": "uint256"
        },
        {
          "internalType": "string",
          "name": "title",
          "type": "string"
        },
        {
          "internalType": "string",
          "name": "description",
          "type": "string"
        },
        {
          "internalType": "address",
          "name": "proposer",
          "type": "address"
        },
        {
          "internalType": "uint256",
          "name": "startTime",
          "type": "uint256"
        },
        {
          "internalType": "uint256",
          "name": "endTime",
          "type": "uint256"
        },
        {
          "internalType": "uint256",
          "name": "yesVotes",
          "type": "uint256"
        },
        {
          "internalType": "uint256",
          "name": "noVotes",
          "type": "uint256"
        },
        {
          "internalType": "uint256",
          "name": "abstainVotes",
          "type": "uint256"
        },
        {
          "internalType": "uint256",
          "name": "totalVotingPower",
          "type": "uint256"
        },
        {
          "internalType": "bool",
          "name": "executed",
          "type": "bool"
        },
        {
          "internalType": "enum MeshGovernance.ProposalState",
          "name": "state",
          "type": "uint8"
        }
      ],
      "stateMutability": "view",
      "type": "function"
    },
    {
      "inputs": [
        {
          "internalType": "uint256",
          "name": "proposalId",
          "type": "uint256"
        },
        {
          "internalType": "address",
          "name": "voter",
          "type": "address"
        }
      ],
      "name": "getVote",
      "outputs": [
        {
          "internalType": "bool",
          "name": "hasVoted",
          "type": "bool"
        },
        {
          "internalType": "uint8",
          "name": "support",
          "type": "uint8"
        },
        {
          "internalType": "uint256",
          "name": "votingPower",
          "type": "uint256"
        }
      ],
      "stateMutability": "view",
      "type": "function"
    },
    {
      "inputs": [
        {
          "internalType": "address",
          "name": "voter",
          "type": "address"
        }
      ],
      "name": "getVotingPower",
      "outputs": [
        {
          "internalType": "uint256",
          "name": "",
          "type": "uint256"
        }
      ],
      "stateMutability": "view",
      "type": "function"
    },
    {
      "inputs": [],
      "name": "owner",
      "outputs": [
        {
          "internalType": "address",
          "name": "",
          "type": "address"
        }
      ],
      "stateMutability": "view",
      "type": "function"
    },
    {
      "inputs": [],
      "name": "proposalCount",
      "outputs": [
        {
          "internalType": "uint256",
          "name": "",
          "type": "uint256"
        }
      ],
      "stateMutability": "view",
      "type": "function"
    },
    {
      "inputs": [
        {
          "internalType": "uint256",
          "name": "",
          "type": "uint256"
        }
      ],
      "name": "proposals",
      "outputs": [
        {
          "internalType": "uint256",
          "name": "id",
          "type": "uint256"
        },
        {
          "internalType": "string",
          "name": "title",
          "type": "string"
        },
        {
          "internalType": "string",
          "name": "description",
          "type": "string"
        },
        {
          "internalType": "address",
          "name": "proposer",
          "type": "address"
        },
        {
          "internalType": "uint256",
          "name": "startTime",
          "type": "uint256"
        },
        {
          "internalType": "uint256",
          "name": "endTime",
          "type": "uint256"
        },
        {
          "internalType": "uint256",
          "name": "yesVotes",
          "type": "uint256"
        },
        {
          "internalType": "uint256",
          "name": "noVotes",
          "type": "uint256"
        },
        {
          "internalType": "uint256",
          "name": "abstainVotes",
          "type": "uint256"
        },
        {
          "internalType": "uint256",
          "name": "totalVotingPower",
          "type": "uint256"
        },
        {
          "internalType": "bool",
          "name": "executed",
          "type": "bool"
        },
        {
          "internalType": "enum MeshGovernance.ProposalState",
          "name": "state",
          "type": "uint8"
        }
      ],
      "stateMutability": "view",
      "type": "function"
    },
    {
      "inputs": [
        {
          "internalType": "uint256",
          "name": "proposalId",
          "type": "uint256"
        }
      ],
      "name": "rejectProposal",
      "outputs": [],
      "stateMutability": "nonpayable",
      "type": "function"
    },
    {
      "inputs": [],
      "name": "renounceOwnership",
      "outputs": [],
      "stateMutability": "nonpayable",
      "type": "function"
    },
    {
      "inputs": [
        {
          "internalType": "address",
          "name": "executor",
          "type": "address"
        },
        {
          "internalType": "bool",
          "name": "authorized",
          "type": "bool"
        }
      ],
      "name": "setExecutorAuthorized",
      "outputs": [],
      "stateMutability": "nonpayable",
      "type": "function"
    },
    {
      "inputs": [
        {
          "internalType": "uint256",
          "name": "newDelay",
          "type": "uint256"
        }
      ],
      "name": "setVotingDelay",
      "outputs": [],
      "stateMutability": "nonpayable",
      "type": "function"
    },
    {
      "inputs": [
        {
          "internalType": "uint256",
          "name": "newPeriod",
          "type": "uint256"
        }
      ],
      "name": "setVotingPeriod",
      "outputs": [],
      "stateMutability": "nonpayable",
      "type": "function"
    },
    {
      "inputs": [],
      "name": "token",
      "outputs": [
        {
          "internalType": "contract X0TToken",
          "name": "",
          "type": "address"
        }
      ],
      "stateMutability": "view",
      "type": "function"
    },
    {
      "inputs": [
        {
          "internalType": "address",
          "name": "newOwner",
          "type": "address"
        }
      ],
      "name": "transferOwnership",
      "outputs": [],
      "stateMutability": "nonpayable",
      "type": "function"
    },
    {
      "inputs": [
        {
          "internalType": "uint256",
          "name": "",
          "type": "uint256"
        },
        {
          "internalType": "address",
          "name": "",
          "type": "address"
        }
      ],
      "name": "votes",
      "outputs": [
        {
          "internalType": "bool",
          "name": "hasVoted",
          "type": "bool"
        },
        {
          "internalType": "uint8",
          "name": "support",
          "type": "uint8"
        },
        {
          "internalType": "uint256",
          "name": "votingPower",
          "type": "uint256"
        }
      ],
      "stateMutability": "view",
      "type": "function"
    },
    {
      "inputs": [],
      "name": "votingDelay",
      "outputs": [
        {
          "internalType": "uint256",
          "name": "",
          "type": "uint256"
        }
      ],
      "stateMutability": "view",
      "type": "function"
    },
    {
      "inputs": [],
      "name": "votingPeriod",
      "outputs": [
        {
          "internalType": "uint256",
          "name": "",
          "type": "uint256"
        }
      ],
      "stateMutability": "view",
      "type": "function"
    }
  ],
  "bytecode": "0x60806040523480156200001157600080fd5b50604051620021c0380380620021c083398101604081905262000034916200010a565b33806200005b57604051631e4fbdf760e01b81526000600482015260240160405180910390fd5b6200006681620000ba565b506001808055600280546001600160a01b0319166001600160a01b039390931692909217909155610e106007556203f480600855336000908152600560205260409020805460ff191690911790556200013c565b600080546001600160a01b038381166001600160a01b0319831681178455604051919092169283917f8be0079c531659141344cd1fd0a4f28419497f9722a3daafe3b4186f6b6457e09190a35050565b6000602082840312156200011d57600080fd5b81516001600160a01b03811681146200013557600080fd5b9392505050565b612074806200014c6000396000f3fe608060405234801561001057600080fd5b506004361061018e5760003560e01c8063bb4d4436116100de578063c7f758a811610097578063da35c66411610071578063da35c664146103e2578063ea0217cf146103eb578063f2fde38b146103fe578063fc0c546a1461041157600080fd5b8063c7f758a81461037d578063cc63604a14610390578063d23254b4146103a357600080fd5b8063bb4d4436146102c2578063bc13e995146102d5578063bc28d878146102de578063bc3f931f146102f1578063bd96821614610373578063befbbfe1146102d557600080fd5b8063567813881161014b578063715018a611610125578063715018a6146102785780638da5cb5b14610280578063944ee22d146102a5578063ab413c8c146102af57600080fd5b8063567813881461021f578063679d86a71461023257806370b0f6601461026557600080fd5b8063013cf08b1461019357806302a251a3146101c75780630ce0ebf4146101de5780630d61b519146101f157806338d5272a146102065780633932abb114610216575b600080fd5b6101a66101a1366004611ae1565b610424565b6040516101be9c9b9a99989796959493929190611b78565b60405180910390f35b6101d060085481565b6040519081526020016101be565b6101d06101ec366004611ca8565b6105a0565b6102046101ff366004611ae1565b61095d565b005b6101d068056bc75e2d6310000081565b6101d060075481565b61020461022d366004611d15565b610cf8565b610255610240366004611d67565b60056020526000908152604090205460ff1681565b60405190151581526020016101be565b610204610273366004611ae1565b6110da565b6102046110e7565b6000546001600160a01b03165b6040516001600160a01b0390911681526020016101be565b6101d06201518081565b6102046102bd366004611d89565b6110fb565b6101d06102d0366004611d67565b611162565b6101d061138881565b6102046102ec366004611ae1565b6111d7565b6103546102ff366004611dba565b60009182526004602090815260408084206001600160a01b03939093168452918152918190208151606081018352815460ff808216151580845261010090920416948201859052600190920154920182905292565b60408051931515845260ff9092166020840152908201526060016101be565b6101d062278d0081565b6101a661038b366004611ae1565b61141a565b61025561039e366004611ae1565b61167a565b6103546103b1366004611dba565b60046020908152600092835260408084209091529082529020805460019091015460ff808316926101009004169083565b6101d060065481565b6102046103f9366004611ae1565b6119f2565b61020461040c366004611d67565b6119ff565b60025461028d906001600160a01b031681565b6003602052600090815260409020805460018201805491929161044690611de6565b80601f016020809104026020016040519081016040528092919081815260200182805461047290611de6565b80156104bf5780601f10610494576101008083540402835291602001916104bf565b820191906000526020600020905b8154815290600101906020018083116104a257829003601f168201915b5050505050908060020180546104d490611de6565b80601f016020809104026020016040519081016040528092919081815260200182805461050090611de6565b801561054d5780601f106105225761010080835404028352916020019161054d565b820191906000526020600020905b81548152906001019060200180831161053057829003601f168201915b50505060038401546004850154600586015460068701546007880154600889015460098a0154600a909a015498996001600160a01b03909616989497509295509093909260ff808216916101009004168c565b6000808451116105e85760405162461bcd60e51b815260206004820152600e60248201526d151a5d1b19481c995c5d5a5c995960921b60448201526064015b60405180910390fd5b60c88451111561062b5760405162461bcd60e51b815260206004820152600e60248201526d5469746c6520746f6f206c6f6e6760901b60448201526064016105df565b6107d0835111156106755760405162461bcd60e51b81526020600482015260146024820152734465736372697074696f6e20746f6f206c6f6e6760601b60448201526064016105df565b620151808210156106bd5760405162461bcd60e51b8152602060048201526012602482015271111d5c985d1a5bdb881d1bdbc81cda1bdc9d60721b60448201526064016105df565b62278d008211156107045760405162461bcd60e51b81526020600482015260116024820152704475726174696f6e20746f6f206c6f6e6760781b60448201526064016105df565b600061070f33611162565b905068056bc75e2d6310000081101561076a5760405162461bcd60e51b815260206004820152601c60248201527f496e73756666696369656e742070726f706f736572207765696768740000000060448201526064016105df565b6006805490600061077a83611e36565b90915550506006546007546000906107929042611e4f565b905060006107a08683611e4f565b9050604051806101800160405280848152602001898152602001888152602001336001600160a01b03168152602001838152602001828152602001600081526020016000815260200160008152602001600081526020016000151581526020016000600481111561081357610813611b40565b905260008481526003602090815260409091208251815590820151600182019061083d9082611eaf565b50604082015160028201906108529082611eaf565b5060608201516003820180546001600160a01b0319166001600160a01b03909216919091179055608082015160048083019190915560a0830151600583015560c0830151600683015560e083015160078301556101008084015160088401556101208401516009840155610140840151600a8401805460ff198116921515928317825561016087015194919361ffff1990911661ff0019909316929092179190849081111561090357610903611b40565b0217905550905050336001600160a01b0316837f6c98a8c940418b35614f0cd02412d5c9606faff474cbb6cdd6640ba5d1a9f06b8a858560405161094993929190611f6f565b60405180910390a350909695505050505050565b610965611a3a565b60008111801561097757506006548111155b6109935760405162461bcd60e51b81526004016105df90611f94565b3360009081526005602052604090205460ff16806109bb57506000546001600160a01b031633145b610a075760405162461bcd60e51b815260206004820152601760248201527f4e6f7420617574686f72697a6564206578656375746f7200000000000000000060448201526064016105df565b60008181526003602052604090206005810154421015610a5c5760405162461bcd60e51b815260206004820152601060248201526f159bdd1a5b99c81b9bdd08195b99195960821b60448201526064016105df565b600a81015460ff1615610aa45760405162461bcd60e51b815260206004820152601060248201526f105b1c9958591e48195e1958dd5d195960821b60448201526064016105df565b6001600a820154610100900460ff166004811115610ac457610ac4611b40565b1480610aed57506002600a820154610100900460ff166004811115610aeb57610aeb611b40565b145b610b2a5760405162461bcd60e51b815260206004820152600e60248201526d43616e6e6f74206578656375746560901b60448201526064016105df565b600254604080516340bd8e6960e11b815290516000926001600160a01b03169163817b1cd29160048083019260209291908290030181865afa158015610b74573d6000803e3d6000fd5b505050506040513d601f19601f82011682018060405250810190610b989190611fbe565b90506000612710610bab61138884611fd7565b610bb59190611fee565b90508083600901541015610bfc5760405162461bcd60e51b815260206004820152600e60248201526d145d5bdc9d5b481b9bdd081b595d60921b60448201526064016105df565b600083600701548460060154610c129190611e4f565b90508015610c83576000818560060154612710610c2f9190611fd7565b610c399190611fee565b9050611388811015610c815760405162461bcd60e51b8152602060048201526011602482015270151a1c995cda1bdb19081b9bdd081b595d607a1b60448201526064016105df565b505b600a8401805461ffff1916610201179055604051859060008051602061201f83398151915290610cb590600290612010565b60405180910390a260405185907f712ae1383f79ac853f8d882153778e0260ef8f03b504e2866e0593e04d2b291f90600090a250505050610cf560018055565b50565b610d00611a3a565b60028160ff161115610d435760405162461bcd60e51b815260206004820152600c60248201526b496e76616c696420766f746560a01b60448201526064016105df565b600082118015610d5557506006548211155b610d715760405162461bcd60e51b81526004016105df90611f94565b60008281526003602052604090206004810154421015610dc85760405162461bcd60e51b8152602060048201526012602482015271159bdd1a5b99c81b9bdd081cdd185c9d195960721b60448201526064016105df565b80600501544210610e0a5760405162461bcd60e51b815260206004820152600c60248201526b159bdd1a5b99c8195b99195960a21b60448201526064016105df565b6001600a820154610100900460ff166004811115610e2a57610e2a611b40565b1480610e5357506000600a820154610100900460ff166004811115610e5157610e51611b40565b145b610e955760405162461bcd60e51b815260206004820152601360248201527250726f706f73616c206e6f742061637469766560681b60448201526064016105df565b600083815260046020908152604080832033845290915290205460ff1615610eef5760405162461bcd60e51b815260206004820152600d60248201526c105b1c9958591e481d9bdd1959609a1b60448201526064016105df565b6000610efa33611162565b905060008111610f3e5760405162461bcd60e51b815260206004820152600f60248201526e2737903b37ba34b733903837bbb2b960891b60448201526064016105df565b60408051606081018252600180825260ff868116602080850182815285870188815260008c8152600484528881203382529093529690912094518554915161ffff1990921690151561ff00191617610100919093160291909117835592519181019190915503610fc75780826006016000828254610fbc9190611e4f565b909155506110009050565b8260ff16600003610fe65780826007016000828254610fbc9190611e4f565b80826008016000828254610ffa9190611e4f565b90915550505b808260090160008282546110149190611e4f565b9091555060009050600a830154610100900460ff16600481111561103a5761103a611b40565b14801561104b575081600401544210155b1561108b57600a8201805461ff001916610100179055604051849060008051602061201f8339815191529061108290600190612010565b60405180910390a25b6040805160ff8516815260208101839052339186917fb83d25c6a5d258561330739951487acb4bd09ba5190b5d32c4f261817d906792910160405180910390a350506110d660018055565b5050565b6110e2611a64565b600755565b6110ef611a64565b6110f96000611a91565b565b611103611a64565b6001600160a01b038216600081815260056020908152604091829020805460ff191685151590811790915591519182527f61e59429ef81596566b5f5d75085a25d4043be4dd2ba28cc98d8677718e6d0c3910160405180910390a25050565b60025460405163603a39fb60e11b81526001600160a01b038381166004830152600092169063c07473f690602401602060405180830381865afa1580156111ad573d6000803e3d6000fd5b505050506040513d601f19601f820116820180604052508101906111d19190611fbe565b92915050565b6000811180156111e957506006548111155b6112055760405162461bcd60e51b81526004016105df90611f94565b6000818152600360205260409020600581015442101561125a5760405162461bcd60e51b815260206004820152601060248201526f159bdd1a5b99c81b9bdd08195b99195960821b60448201526064016105df565b6001600a820154610100900460ff16600481111561127a5761127a611b40565b146112b45760405162461bcd60e51b815260206004820152600a6024820152694e6f742061637469766560b01b60448201526064016105df565b600254604080516340bd8e6960e11b815290516000926001600160a01b03169163817b1cd29160048083019260209291908290030181865afa1580156112fe573d6000803e3d6000fd5b505050506040513d601f19601f820116820180604052508101906113229190611fbe565b9050600061271061133561138884611fd7565b61133f9190611fee565b9050808360090154101561138d57600a8301805461ff001916610300179055604051849060008051602061201f8339815191529061137f90600390612010565b60405180910390a250505050565b6000836007015484600601546113a39190611e4f565b905080156114135760008185600601546127106113c09190611fd7565b6113ca9190611fee565b905061138881101561141157600a8501805461ff001916610300179055604051869060008051602061201f8339815191529061140890600390612010565b60405180910390a25b505b5050505050565b6000606080600080600080600080600080600080600360008f8152602001908152602001600020604051806101800160405290816000820154815260200160018201805461146790611de6565b80601f016020809104026020016040519081016040528092919081815260200182805461149390611de6565b80156114e05780601f106114b5576101008083540402835291602001916114e0565b820191906000526020600020905b8154815290600101906020018083116114c357829003601f168201915b505050505081526020016002820180546114f990611de6565b80601f016020809104026020016040519081016040528092919081815260200182805461152590611de6565b80156115725780601f1061154757610100808354040283529160200191611572565b820191906000526020600020905b81548152906001019060200180831161155557829003601f168201915b505050918352505060038201546001600160a01b0316602082015260048083015460408301526005830154606083015260068301546080830152600783015460a0830152600883015460c0830152600983015460e0830152600a83015460ff8082161515610100808601919091526101209094019390910416908111156115fb576115fb611b40565b600481111561160c5761160c611b40565b815250509050806000015181602001518260400151836060015184608001518560a001518660c001518760e001518861010001518961012001518a61014001518b61016001519c509c509c509c509c509c509c509c509c509c509c509c505091939597999b5091939597999b565b600081158061168a575060065482115b1561169757506000919050565b60006003600084815260200190815260200160002060405180610180016040529081600082015481526020016001820180546116d290611de6565b80601f01602080910402602001604051908101604052809291908181526020018280546116fe90611de6565b801561174b5780601f106117205761010080835404028352916020019161174b565b820191906000526020600020905b81548152906001019060200180831161172e57829003601f168201915b5050505050815260200160028201805461176490611de6565b80601f016020809104026020016040519081016040528092919081815260200182805461179090611de6565b80156117dd5780601f106117b2576101008083540402835291602001916117dd565b820191906000526020600020905b8154815290600101906020018083116117c057829003601f168201915b505050918352505060038201546001600160a01b0316602082015260048083015460408301526005830154606083015260068301546080830152600783015460a0830152600883015460c0830152600983015460e0830152600a83015460ff80821615156101008086019190915261012090940193909104169081111561186657611866611b40565b600481111561187757611877611b40565b8152505090508060a001514210156118925750600092915050565b806101400151156118a65750600092915050565b600181610160015160048111156118bf576118bf611b40565b141580156118e45750600281610160015160048111156118e1576118e1611b40565b14155b156118f25750600092915050565b600254604080516340bd8e6960e11b815290516000926001600160a01b03169163817b1cd29160048083019260209291908290030181865afa15801561193c573d6000803e3d6000fd5b505050506040513d601f19601f820116820180604052508101906119609190611fbe565b9050600061271061197361138884611fd7565b61197d9190611fee565b905080836101200151101561199757506000949350505050565b60008360e001518460c001516119ad9190611e4f565b9050806000036119c35750600095945050505050565b6000818560c001516127106119d89190611fd7565b6119e29190611fee565b6113881115979650505050505050565b6119fa611a64565b600855565b611a07611a64565b6001600160a01b038116611a3157604051631e4fbdf760e01b8152600060048201526024016105df565b610cf581611a91565b600260015403611a5d57604051633ee5aeb560e01b815260040160405180910390fd5b6002600155565b6000546001600160a01b031633146110f95760405163118cdaa760e01b81523360048201526024016105df565b600080546001600160a01b038381166001600160a01b0319831681178455604051919092169283917f8be0079c531659141344cd1fd0a4f28419497f9722a3daafe3b4186f6b6457e09190a35050565b600060208284031215611af357600080fd5b5035919050565b6000815180845260005b81811015611b2057602081850181015186830182015201611b04565b506000602082860101526020601f19601f83011685010191505092915050565b634e487b7160e01b600052602160045260246000fd5b60058110611b7457634e487b7160e01b600052602160045260246000fd5b9052565b60006101808e8352806020840152611b928184018f611afa565b90508281036040840152611ba6818e611afa565b91505060018060a01b038b1660608301528960808301528860a08301528760c08301528660e08301528561010083015284610120830152831515610140830152611bf4610160830184611b56565b9d9c50505050505050505050505050565b634e487b7160e01b600052604160045260246000fd5b600082601f830112611c2c57600080fd5b813567ffffffffffffffff80821115611c4757611c47611c05565b604051601f8301601f19908116603f01168101908282118183101715611c6f57611c6f611c05565b81604052838152866020858801011115611c8857600080fd5b836020870160208301376000602085830101528094505050505092915050565b600080600060608486031215611cbd57600080fd5b833567ffffffffffffffff80821115611cd557600080fd5b611ce187838801611c1b565b94506020860135915080821115611cf757600080fd5b50611d0486828701611c1b565b925050604084013590509250925092565b60008060408385031215611d2857600080fd5b82359150602083013560ff81168114611d4057600080fd5b809150509250929050565b80356001600160a01b0381168114611d6257600080fd5b919050565b600060208284031215611d7957600080fd5b611d8282611d4b565b9392505050565b60008060408385031215611d9c57600080fd5b611da583611d4b565b915060208301358015158114611d4057600080fd5b60008060408385031215611dcd57600080fd5b82359150611ddd60208401611d4b565b90509250929050565b600181811c90821680611dfa57607f821691505b602082108103611e1a57634e487b7160e01b600052602260045260246000fd5b50919050565b634e487b7160e01b600052601160045260246000fd5b600060018201611e4857611e48611e20565b5060010190565b808201808211156111d1576111d1611e20565b601f821115611eaa576000816000526020600020601f850160051c81016020861015611e8b5750805b601f850160051c820191505b8181101561141157828155600101611e97565b505050565b815167ffffffffffffffff811115611ec957611ec9611c05565b611edd81611ed78454611de6565b84611e62565b602080601f831160018114611f125760008415611efa5750858301515b600019600386901b1c1916600185901b178555611411565b600085815260208120601f198616915b82811015611f4157888601518255948401946001909101908401611f22565b5085821015611f5f5787850151600019600388901b60f8161c191681555b5050505050600190811b01905550565b606081526000611f826060830186611afa565b60208301949094525060400152919050565b60208082526010908201526f125b9d985b1a59081c1c9bdc1bdcd85b60821b604082015260600190565b600060208284031215611fd057600080fd5b5051919050565b80820281158282048414176111d1576111d1611e20565b60008261200b57634e487b7160e01b600052601260045260246000fd5b500490565b602081016111d18284611b5656fed6b3a81dd8b7dc419d8d0f20797397ea2eaba914386b89898aa638438803a1eca26469706673582212200eb8eec540788b45bddfc61d5daa0f4504c7356f4fe37ca74243f8f0ebea821264736f6c63430008180033",
  "linkReferences": {},
  "deployedLinkReferences": {}
}