{
  "_format": "hh3-artifact-1",
  "contractName": "MeshGovernance",
  "sourceName": "contracts/MeshGovernance.sol",
  "abi": [
    {
      "inputs": [
        {
          "internalType": "address",
          "name": "_token",
          "type": "address"
        }
      ],
      "stateMutability": "nonpayable",
      "type": "constructor"
    },
    {
      "inputs": [
        {
          "internalType": "address",
          "name": "owner",
          "type": "address"
        }
      ],
      "name": "OwnableInvalidOwner",
      "type": "error"
    },
    {
      "inputs": [
        {
          "internalType": "address",
          "name": "account",
          "type": "address"
        }
      ],
      "name": "OwnableUnauthorizedAccount",
      "type": "error"
    },
    {
      "inputs": [],
      "name": "ReentrancyGuardReentrantCall",
      "type": "error"
    },
    {
      "anonymous": false,
      "inputs": [
        {
          "indexed": true,
          "internalType": "address",
          "name": "executor",
          "type": "address"
        },
        {
          "indexed": false,
          "internalType": "bool",
          "name": "authorized",
          "type": "bool"
        }
      ],
      "name": "ExecutorAuthorized",
      "type": "event"
    },
    {
      "anonymous": false,
      "inputs": [
        {
          "indexed": true,
          "internalType": "address",
          "name": "previousOwner",
          "type": "address"
        },
        {
          "indexed": true,
          "internalType": "address",
          "name": "newOwner",
          "type": "address"
        }
      ],
      "name": "OwnershipTransferred",
      "type": "event"
    },
    {
      "anonymous": false,
      "inputs": [
        {
          "indexed": true,
          "internalType": "uint256",
          "name": "proposalId",
          "type": "uint256"
        },
        {
          "indexed": true,
          "internalType": "address",
          "name": "proposer",
          "type": "address"
        },
        {
          "indexed": false,
          "internalType": "string",
          "name": "title",
          "type": "string"
        },
        {
          "indexed": false,
          "internalType": "uint256",
          "name": "startTime",
          "type": "uint256"
        },
        {
          "indexed": false,
          "internalType": "uint256",
          "name": "endTime",
          "type": "uint256"
        }
      ],
      "name": "ProposalCreated",
      "type": "event"
    },
    {
      "anonymous": false,
      "inputs": [
        {
          "indexed": true,
          "internalType": "uint256",
          "name": "proposalId",
          "type": "uint256"
        }
      ],
      "name": "ProposalExecuted",
      "type": "event"
    },
    {
      "anonymous": false,
      "inputs": [
        {
          "indexed": true,
          "internalType": "uint256",
          "name": "proposalId",
          "type": "uint256"
        },
        {
          "indexed": false,
          "internalType": "enum MeshGovernance.ProposalState",
          "name": "newState",
          "type": "uint8"
        }
      ],
      "name": "ProposalStateChanged",
      "type": "event"
    },
    {
      "anonymous": false,
      "inputs": [
        {
          "indexed": true,
          "internalType": "uint256",
          "name": "proposalId",
          "type": "uint256"
        },
        {
          "indexed": true,
          "internalType": "address",
          "name": "voter",
          "type": "address"
        },
        {
          "indexed": false,
          "internalType": "uint8",
          "name": "support",
          "type": "uint8"
        },
        {
          "indexed": false,
          "internalType": "uint256",
          "name": "votingPower",
          "type": "uint256"
        }
      ],
      "name": "VoteCast",
      "type": "event"
    },
    {
      "inputs": [],
      "name": "MAX_PROPOSAL_DURATION",
      "outputs": [
        {
          "internalType": "uint256",
          "name": "",
          "type": "uint256"
        }
      ],
      "stateMutability": "view",
      "type": "function"
    },
    {
      "inputs": [],
      "name": "MIN_PROPOSAL_DURATION",
      "outputs": [
        {
          "internalType": "uint256",
          "name": "",
          "type": "uint256"
        }
      ],
      "stateMutability": "view",
      "type": "function"
    },
    {
      "inputs": [],
      "name": "MIN_PROPOSER_POWER",
      "outputs": [
        {
          "internalType": "uint256",
          "name": "",
          "type": "uint256"
        }
      ],
      "stateMutability": "view",
      "type": "function"
    },
    {
      "inputs": [],
      "name": "QUORUM_BASIS_POINTS",
      "outputs": [
        {
          "internalType": "uint256",
          "name": "",
          "type": "uint256"
        }
      ],
      "stateMutability": "view",
      "type": "function"
    },
    {
      "inputs": [],
      "name": "THRESHOLD_BASIS_POINTS",
      "outputs": [
        {
          "internalType": "uint256",
          "name": "",
          "type": "uint256"
        }
      ],
      "stateMutability": "view",
      "type": "function"
    },
    {
      "inputs": [
        {
          "internalType": "address",
          "name": "",
          "type": "address"
        }
      ],
      "name": "authorizedExecutors",
      "outputs": [
        {
          "internalType": "bool",
          "name": "",
          "type": "bool"
        }
      ],
      "stateMutability": "view",
      "type": "function"
    },
    {
      "inputs": [
        {
          "internalType": "uint256",
          "name": "proposalId",
          "type": "uint256"
        }
      ],
      "name": "canExecute",
      "outputs": [
        {
          "internalType": "bool",
          "name": "",
          "type": "bool"
        }
      ],
      "stateMutability": "view",
      "type": "function"
    },
    {
      "inputs": [
        {
          "internalType": "uint256",
          "name": "proposalId",
          "type": "uint256"
        },
        {
          "internalType": "uint8",
          "name": "support",
          "type": "uint8"
        }
      ],
      "name": "castVote",
      "outputs": [],
      "stateMutability": "nonpayable",
      "type": "function"
    },
    {
      "inputs": [
        {
          "internalType": "string",
          "name": "title",
          "type": "string"
        },
        {
          "internalType": "string",
          "name": "description",
          "type": "string"
        },
        {
          "internalType": "uint256",
          "name": "duration",
          "type": "uint256"
        }
      ],
      "name": "createProposal",
      "outputs": [
        {
          "internalType": "uint256",
          "name": "",
          "type": "uint256"
        }
      ],
      "stateMutability": "nonpayable",
      "type": "function"
    },
    {
      "inputs": [
        {
          "internalType": "uint256",
          "name": "proposalId",
          "type": "uint256"
        }
      ],
      "name": "executeProposal",
      "outputs": [],
      "stateMutability": "nonpayable",
      "type": "function"
    },
    {
      "inputs": [
        {
          "internalType": "uint256",
          "name": "proposalId",
          "type": "uint256"
        }
      ],
      "name": "getProposal",
      "outputs": [
        {
          "internalType": "uint256",
          "name": "id",
          "type": "uint256"
        },
        {
          "internalType": "string",
          "name": "title",
          "type": "string"
        },
        {
          "internalType": "string",
          "name": "description",
          "type": "string"
        },
        {
          "internalType": "address",
          "name": "proposer",
          "type": "address"
        },
        {
          "internalType": "uint256",
          "name": "startTime",
          "type": "uint256"
        },
        {
          "internalType": "uint256",
          "name": "endTime",
          "type": "uint256"
        },
        {
          "internalType": "uint256",
          "name": "yesVotes",
          "type": "uint256"
        },
        {
          "internalType": "uint256",
          "name": "noVotes",
          "type": "uint256"
        },
        {
          "internalType": "uint256",
          "name": "abstainVotes",
          "type": "uint256"
        },
        {
          "internalType": "uint256",
          "name": "totalVotingPower",
          "type": "uint256"
        },
        {
          "internalType": "bool",
          "name": "executed",
          "type": "bool"
        },
        {
          "internalType": "enum MeshGovernance.ProposalState",
          "name": "state",
          "type": "uint8"
        }
      ],
      "stateMutability": "view",
      "type": "function"
    },
    {
      "inputs": [
        {
          "internalType": "uint256",
          "name": "proposalId",
          "type": "uint256"
        },
        {
          "internalType": "address",
          "name": "voter",
          "type": "address"
        }
      ],
      "name": "getVote",
      "outputs": [
        {
          "internalType": "bool",
          "name": "hasVoted",
          "type": "bool"
        },
        {
          "internalType": "uint8",
          "name": "support",
          "type": "uint8"
        },
        {
          "internalType": "uint256",
          "name": "votingPower",
          "type": "uint256"
        }
      ],
      "stateMutability": "view",
      "type": "function"
    },
    {
      "inputs": [
        {
          "internalType": "address",
          "name": "voter",
          "type": "address"
        }
      ],
      "name": "getVotingPower",
      "outputs": [
        {
          "internalType": "uint256",
          "name": "",
          "type": "uint256"
        }
      ],
      "stateMutability": "view",
      "type": "function"
    },
    {
      "inputs": [],
      "name": "owner",
      "outputs": [
        {
          "internalType": "address",
          "name": "",
          "type": "address"
        }
      ],
      "stateMutability": "view",
      "type": "function"
    },
    {
      "inputs": [],
      "name": "proposalCount",
      "outputs": [
        {
          "internalType": "uint256",
          "name": "",
          "type": "uint256"
        }
      ],
      "stateMutability": "view",
      "type": "function"
    },
    {
      "inputs": [
        {
          "internalType": "uint256",
          "name": "",
          "type": "uint256"
        }
      ],
      "name": "proposals",
      "outputs": [
        {
          "internalType": "uint256",
          "name": "id",
          "type": "uint256"
        },
        {
          "internalType": "string",
          "name": "title",
          "type": "string"
        },
        {
          "internalType": "string",
          "name": "description",
          "type": "string"
        },
        {
          "internalType": "address",
          "name": "proposer",
          "type": "address"
        },
        {
          "internalType": "uint256",
          "name": "startTime",
          "type": "uint256"
        },
        {
          "internalType": "uint256",
          "name": "endTime",
          "type": "uint256"
        },
        {
          "internalType": "uint256",
          "name": "yesVotes",
          "type": "uint256"
        },
        {
          "internalType": "uint256",
          "name": "noVotes",
          "type": "uint256"
        },
        {
          "internalType": "uint256",
          "name": "abstainVotes",
          "type": "uint256"
        },
        {
          "internalType": "uint256",
          "name": "totalVotingPower",
          "type": "uint256"
        },
        {
          "internalType": "bool",
          "name": "executed",
          "type": "bool"
        },
        {
          "internalType": "enum MeshGovernance.ProposalState",
          "name": "state",
          "type": "uint8"
        }
      ],
      "stateMutability": "view",
      "type": "function"
    },
    {
      "inputs": [
        {
          "internalType": "uint256",
          "name": "proposalId",
          "type": "uint256"
        }
      ],
      "name": "rejectProposal",
      "outputs": [],
      "stateMutability": "nonpayable",
      "type": "function"
    },
    {
      "inputs": [],
      "name": "renounceOwnership",
      "outputs": [],
      "stateMutability": "nonpayable",
      "type": "function"
    },
    {
      "inputs": [
        {
          "internalType": "address",
          "name": "executor",
          "type": "address"
        },
        {
          "internalType": "bool",
          "name": "authorized",
          "type": "bool"
        }
      ],
      "name": "setExecutorAuthorized",
      "outputs": [],
      "stateMutability": "nonpayable",
      "type": "function"
    },
    {
      "inputs": [
        {
          "internalType": "uint256",
          "name": "newDelay",
          "type": "uint256"
        }
      ],
      "name": "setVotingDelay",
      "outputs": [],
      "stateMutability": "nonpayable",
      "type": "function"
    },
    {
      "inputs": [
        {
          "internalType": "uint256",
          "name": "newPeriod",
          "type": "uint256"
        }
      ],
      "name": "setVotingPeriod",
      "outputs": [],
      "stateMutability": "nonpayable",
      "type": "function"
    },
    {
      "inputs": [],
      "name": "token",
      "outputs": [
        {
          "internalType": "contract X0TToken",
          "name": "",
          "type": "address"
        }
      ],
      "stateMutability": "view",
      "type": "function"
    },
    {
      "inputs": [
        {
          "internalType": "address",
          "name": "newOwner",
          "type": "address"
        }
      ],
      "name": "transferOwnership",
      "outputs": [],
      "stateMutability": "nonpayable",
      "type": "function"
    },
    {
      "inputs": [
        {
          "internalType": "uint256",
          "name": "",
          "type": "uint256"
        },
        {
          "internalType": "address",
          "name": "",
          "type": "address"
        }
      ],
      "name": "votes",
      "outputs": [
        {
          "internalType": "bool",
          "name": "hasVoted",
          "type": "bool"
        },
        {
          "internalType": "uint8",
          "name": "support",
          "type": "uint8"
        },
        {
          "internalType": "uint256",
          "name": "votingPower",
          "type": "uint256"
        }
      ],
      "stateMutability": "view",
      "type": "function"
    },
    {
      "inputs": [],
      "name": "votingDelay",
      "outputs": [
        {
          "internalType": "uint256",
          "name": "",
          "type": "uint256"
        }
      ],
      "stateMutability": "view",
      "type": "function"
    },
    {
      "inputs": [],
      "name": "votingPeriod",
      "outputs": [
        {
          "internalType": "uint256",
          "name": "",
          "type": "uint256"
        }
      ],
      "stateMutability": "view",
      "type": "function"
    }
  ],
  "bytecode": "0x608060405234801562000010575f80fd5b506040516200211738038062002117833981016040819052620000339162000106565b33806200005957604051631e4fbdf760e01b81525f600482015260240160405180910390fd5b6200006481620000b7565b506001808055600280546001600160a01b0319166001600160a01b039390931692909217909155610e106007556203f480600855335f908152600560205260409020805460ff1916909117905562000135565b5f80546001600160a01b038381166001600160a01b0319831681178455604051919092169283917f8be0079c531659141344cd1fd0a4f28419497f9722a3daafe3b4186f6b6457e09190a35050565b5f6020828403121562000117575f80fd5b81516001600160a01b03811681146200012e575f80fd5b9392505050565b611fd480620001435f395ff3fe608060405234801561000f575f80fd5b5060043610610187575f3560e01c8063bb4d4436116100d9578063c7f758a811610093578063da35c6641161006e578063da35c664146103d6578063ea0217cf146103df578063f2fde38b146103f2578063fc0c546a14610405575f80fd5b8063c7f758a814610372578063cc63604a14610385578063d23254b414610398575f80fd5b8063bb4d4436146102b8578063bc13e995146102cb578063bc28d878146102d4578063bc3f931f146102e7578063bd96821614610368578063befbbfe1146102cb575f80fd5b80635678138811610144578063715018a61161011f578063715018a61461026f5780638da5cb5b14610277578063944ee22d1461029b578063ab413c8c146102a5575f80fd5b80635678138814610217578063679d86a71461022a57806370b0f6601461025c575f80fd5b8063013cf08b1461018b57806302a251a3146101bf5780630ce0ebf4146101d65780630d61b519146101e957806338d5272a146101fe5780633932abb11461020e575b5f80fd5b61019e610199366004611a74565b610418565b6040516101b69c9b9a99989796959493929190611b02565b60405180910390f35b6101c860085481565b6040519081526020016101b6565b6101c86101e4366004611c2b565b61058f565b6101fc6101f7366004611a74565b610940565b005b6101c868056bc75e2d6310000081565b6101c860075481565b6101fc610225366004611c93565b610ccf565b61024c610238366004611ce1565b60056020525f908152604090205460ff1681565b60405190151581526020016101b6565b6101fc61026a366004611a74565b6110a3565b6101fc6110b0565b5f546001600160a01b03165b6040516001600160a01b0390911681526020016101b6565b6101c86201518081565b6101fc6102b3366004611d01565b6110c3565b6101c86102c6366004611ce1565b611129565b6101c861138881565b6101fc6102e2366004611a74565b61119b565b6103496102f5366004611d2f565b5f9182526004602090815260408084206001600160a01b03939093168452918152918190208151606081018352815460ff808216151580845261010090920416948201859052600190920154920182905292565b60408051931515845260ff9092166020840152908201526060016101b6565b6101c862278d0081565b61019e610380366004611a74565b6113d4565b61024c610393366004611a74565b611626565b6103496103a6366004611d2f565b600460209081525f92835260408084209091529082529020805460019091015460ff808316926101009004169083565b6101c860065481565b6101fc6103ed366004611a74565b611988565b6101fc610400366004611ce1565b611995565b600254610283906001600160a01b031681565b60036020525f90815260409020805460018201805491929161043990611d59565b80601f016020809104026020016040519081016040528092919081815260200182805461046590611d59565b80156104b05780601f10610487576101008083540402835291602001916104b0565b820191905f5260205f20905b81548152906001019060200180831161049357829003601f168201915b5050505050908060020180546104c590611d59565b80601f01602080910402602001604051908101604052809291908181526020018280546104f190611d59565b801561053c5780601f106105135761010080835404028352916020019161053c565b820191905f5260205f20905b81548152906001019060200180831161051f57829003601f168201915b50505060038401546004850154600586015460068701546007880154600889015460098a0154600a909a015498996001600160a01b03909616989497509295509093909260ff808216916101009004168c565b5f808451116105d65760405162461bcd60e51b815260206004820152600e60248201526d151a5d1b19481c995c5d5a5c995960921b60448201526064015b60405180910390fd5b60c8845111156106195760405162461bcd60e51b815260206004820152600e60248201526d5469746c6520746f6f206c6f6e6760901b60448201526064016105cd565b6107d0835111156106635760405162461bcd60e51b81526020600482015260146024820152734465736372697074696f6e20746f6f206c6f6e6760601b60448201526064016105cd565b620151808210156106ab5760405162461bcd60e51b8152602060048201526012602482015271111d5c985d1a5bdb881d1bdbc81cda1bdc9d60721b60448201526064016105cd565b62278d008211156106f25760405162461bcd60e51b81526020600482015260116024820152704475726174696f6e20746f6f206c6f6e6760781b60448201526064016105cd565b5f6106fc33611129565b905068056bc75e2d631000008110156107575760405162461bcd60e51b815260206004820152601c60248201527f496e73756666696369656e742070726f706f736572207765696768740000000060448201526064016105cd565b60068054905f61076683611da5565b90915550506006546007545f9061077d9042611dbd565b90505f61078a8683611dbd565b9050604051806101800160405280848152602001898152602001888152602001336001600160a01b031681526020018381526020018281526020015f81526020015f81526020015f81526020015f81526020015f151581526020015f60048111156107f7576107f7611ace565b90525f848152600360209081526040909120825181559082015160018201906108209082611e19565b50604082015160028201906108359082611e19565b5060608201516003820180546001600160a01b0319166001600160a01b03909216919091179055608082015160048083019190915560a0830151600583015560c0830151600683015560e083015160078301556101008084015160088401556101208401516009840155610140840151600a8401805460ff198116921515928317825561016087015194919361ffff1990911661ff001990931692909217919084908111156108e6576108e6611ace565b0217905550905050336001600160a01b0316837f6c98a8c940418b35614f0cd02412d5c9606faff474cbb6cdd6640ba5d1a9f06b8a858560405161092c93929190611ed5565b60405180910390a350909695505050505050565b6109486119cf565b5f8111801561095957506006548111155b6109755760405162461bcd60e51b81526004016105cd90611ef9565b335f9081526005602052604090205460ff168061099b57505f546001600160a01b031633145b6109e75760405162461bcd60e51b815260206004820152601760248201527f4e6f7420617574686f72697a6564206578656375746f7200000000000000000060448201526064016105cd565b5f8181526003602052604090206005810154421015610a3b5760405162461bcd60e51b815260206004820152601060248201526f159bdd1a5b99c81b9bdd08195b99195960821b60448201526064016105cd565b600a81015460ff1615610a835760405162461bcd60e51b815260206004820152601060248201526f105b1c9958591e48195e1958dd5d195960821b60448201526064016105cd565b6001600a820154610100900460ff166004811115610aa357610aa3611ace565b1480610acc57506002600a820154610100900460ff166004811115610aca57610aca611ace565b145b610b095760405162461bcd60e51b815260206004820152600e60248201526d43616e6e6f74206578656375746560901b60448201526064016105cd565b600254604080516340bd8e6960e11b815290515f926001600160a01b03169163817b1cd29160048083019260209291908290030181865afa158015610b50573d5f803e3d5ffd5b505050506040513d601f19601f82011682018060405250810190610b749190611f23565b90505f612710610b8661138884611f3a565b610b909190611f51565b90508083600901541015610bd75760405162461bcd60e51b815260206004820152600e60248201526d145d5bdc9d5b481b9bdd081b595d60921b60448201526064016105cd565b5f83600701548460060154610bec9190611dbd565b90508015610c5c575f818560060154612710610c089190611f3a565b610c129190611f51565b9050611388811015610c5a5760405162461bcd60e51b8152602060048201526011602482015270151a1c995cda1bdb19081b9bdd081b595d607a1b60448201526064016105cd565b505b600a8401805461ffff191661020117905560405185905f80516020611f7f83398151915290610c8d90600290611f70565b60405180910390a260405185907f712ae1383f79ac853f8d882153778e0260ef8f03b504e2866e0593e04d2b291f905f90a250505050610ccc60018055565b50565b610cd76119cf565b60028160ff161115610d1a5760405162461bcd60e51b815260206004820152600c60248201526b496e76616c696420766f746560a01b60448201526064016105cd565b5f82118015610d2b57506006548211155b610d475760405162461bcd60e51b81526004016105cd90611ef9565b5f8281526003602052604090206004810154421015610d9d5760405162461bcd60e51b8152602060048201526012602482015271159bdd1a5b99c81b9bdd081cdd185c9d195960721b60448201526064016105cd565b80600501544210610ddf5760405162461bcd60e51b815260206004820152600c60248201526b159bdd1a5b99c8195b99195960a21b60448201526064016105cd565b6001600a820154610100900460ff166004811115610dff57610dff611ace565b1480610e2757505f600a820154610100900460ff166004811115610e2557610e25611ace565b145b610e695760405162461bcd60e51b815260206004820152601360248201527250726f706f73616c206e6f742061637469766560681b60448201526064016105cd565b5f83815260046020908152604080832033845290915290205460ff1615610ec25760405162461bcd60e51b815260206004820152600d60248201526c105b1c9958591e481d9bdd1959609a1b60448201526064016105cd565b5f610ecc33611129565b90505f8111610f0f5760405162461bcd60e51b815260206004820152600f60248201526e2737903b37ba34b733903837bbb2b960891b60448201526064016105cd565b60408051606081018252600180825260ff86811660208085018281528587018881525f8c8152600484528881203382529093529690912094518554915161ffff1990921690151561ff00191617610100919093160291909117835592519181019190915503610f965780826006015f828254610f8b9190611dbd565b90915550610fcc9050565b8260ff165f03610fb35780826007015f828254610f8b9190611dbd565b80826008015f828254610fc69190611dbd565b90915550505b80826009015f828254610fdf9190611dbd565b909155505f9050600a830154610100900460ff16600481111561100457611004611ace565b148015611015575081600401544210155b1561105457600a8201805461ff00191661010017905560405184905f80516020611f7f8339815191529061104b90600190611f70565b60405180910390a25b6040805160ff8516815260208101839052339186917fb83d25c6a5d258561330739951487acb4bd09ba5190b5d32c4f261817d906792910160405180910390a3505061109f60018055565b5050565b6110ab6119f9565b600755565b6110b86119f9565b6110c15f611a25565b565b6110cb6119f9565b6001600160a01b0382165f81815260056020908152604091829020805460ff191685151590811790915591519182527f61e59429ef81596566b5f5d75085a25d4043be4dd2ba28cc98d8677718e6d0c3910160405180910390a25050565b60025460405163603a39fb60e11b81526001600160a01b0383811660048301525f92169063c07473f690602401602060405180830381865afa158015611171573d5f803e3d5ffd5b505050506040513d601f19601f820116820180604052508101906111959190611f23565b92915050565b5f811180156111ac57506006548111155b6111c85760405162461bcd60e51b81526004016105cd90611ef9565b5f818152600360205260409020600581015442101561121c5760405162461bcd60e51b815260206004820152601060248201526f159bdd1a5b99c81b9bdd08195b99195960821b60448201526064016105cd565b6001600a820154610100900460ff16600481111561123c5761123c611ace565b146112765760405162461bcd60e51b815260206004820152600a6024820152694e6f742061637469766560b01b60448201526064016105cd565b600254604080516340bd8e6960e11b815290515f926001600160a01b03169163817b1cd29160048083019260209291908290030181865afa1580156112bd573d5f803e3d5ffd5b505050506040513d601f19601f820116820180604052508101906112e19190611f23565b90505f6127106112f361138884611f3a565b6112fd9190611f51565b9050808360090154101561134a57600a8301805461ff00191661030017905560405184905f80516020611f7f8339815191529061133c90600390611f70565b60405180910390a250505050565b5f8360070154846006015461135f9190611dbd565b905080156113cd575f81856006015461271061137b9190611f3a565b6113859190611f51565b90506113888110156113cb57600a8501805461ff00191661030017905560405186905f80516020611f7f833981519152906113c290600390611f70565b60405180910390a25b505b5050505050565b5f6060805f805f805f805f805f8060035f8f81526020019081526020015f20604051806101800160405290815f820154815260200160018201805461141890611d59565b80601f016020809104026020016040519081016040528092919081815260200182805461144490611d59565b801561148f5780601f106114665761010080835404028352916020019161148f565b820191905f5260205f20905b81548152906001019060200180831161147257829003601f168201915b505050505081526020016002820180546114a890611d59565b80601f01602080910402602001604051908101604052809291908181526020018280546114d490611d59565b801561151f5780601f106114f65761010080835404028352916020019161151f565b820191905f5260205f20905b81548152906001019060200180831161150257829003601f168201915b505050918352505060038201546001600160a01b0316602082015260048083015460408301526005830154606083015260068301546080830152600783015460a0830152600883015460c0830152600983015460e0830152600a83015460ff8082161515610100808601919091526101209094019390910416908111156115a8576115a8611ace565b60048111156115b9576115b9611ace565b815250509050805f015181602001518260400151836060015184608001518560a001518660c001518760e001518861010001518961012001518a61014001518b61016001519c509c509c509c509c509c509c509c509c509c509c509c505091939597999b5091939597999b565b5f811580611635575060065482115b1561164157505f919050565b5f60035f8481526020019081526020015f20604051806101800160405290815f820154815260200160018201805461167890611d59565b80601f01602080910402602001604051908101604052809291908181526020018280546116a490611d59565b80156116ef5780601f106116c6576101008083540402835291602001916116ef565b820191905f5260205f20905b8154815290600101906020018083116116d257829003601f168201915b5050505050815260200160028201805461170890611d59565b80601f016020809104026020016040519081016040528092919081815260200182805461173490611d59565b801561177f5780601f106117565761010080835404028352916020019161177f565b820191905f5260205f20905b81548152906001019060200180831161176257829003601f168201915b505050918352505060038201546001600160a01b0316602082015260048083015460408301526005830154606083015260068301546080830152600783015460a0830152600883015460c0830152600983015460e0830152600a83015460ff80821615156101008086019190915261012090940193909104169081111561180857611808611ace565b600481111561181957611819611ace565b8152505090508060a0015142101561183357505f92915050565b8061014001511561184657505f92915050565b6001816101600151600481111561185f5761185f611ace565b1415801561188457506002816101600151600481111561188157611881611ace565b14155b1561189157505f92915050565b600254604080516340bd8e6960e11b815290515f926001600160a01b03169163817b1cd29160048083019260209291908290030181865afa1580156118d8573d5f803e3d5ffd5b505050506040513d601f19601f820116820180604052508101906118fc9190611f23565b90505f61271061190e61138884611f3a565b6119189190611f51565b905080836101200151101561193157505f949350505050565b5f8360e001518460c001516119469190611dbd565b9050805f0361195a57505f95945050505050565b5f818560c0015161271061196e9190611f3a565b6119789190611f51565b6113881115979650505050505050565b6119906119f9565b600855565b61199d6119f9565b6001600160a01b0381166119c657604051631e4fbdf760e01b81525f60048201526024016105cd565b610ccc81611a25565b6002600154036119f257604051633ee5aeb560e01b815260040160405180910390fd5b6002600155565b5f546001600160a01b031633146110c15760405163118cdaa760e01b81523360048201526024016105cd565b5f80546001600160a01b038381166001600160a01b0319831681178455604051919092169283917f8be0079c531659141344cd1fd0a4f28419497f9722a3daafe3b4186f6b6457e09190a35050565b5f60208284031215611a84575f80fd5b5035919050565b5f81518084525f5b81811015611aaf57602081850181015186830182015201611a93565b505f602082860101526020601f19601f83011685010191505092915050565b634e487b7160e01b5f52602160045260245ffd5b60058110611afe57634e487b7160e01b5f52602160045260245ffd5b9052565b5f6101808e8352806020840152611b1b8184018f611a8b565b90508281036040840152611b2f818e611a8b565b91505060018060a01b038b1660608301528960808301528860a08301528760c08301528660e08301528561010083015284610120830152831515610140830152611b7d610160830184611ae2565b9d9c50505050505050505050505050565b634e487b7160e01b5f52604160045260245ffd5b5f82601f830112611bb1575f80fd5b813567ffffffffffffffff80821115611bcc57611bcc611b8e565b604051601f8301601f19908116603f01168101908282118183101715611bf457611bf4611b8e565b81604052838152866020858801011115611c0c575f80fd5b836020870160208301375f602085830101528094505050505092915050565b5f805f60608486031215611c3d575f80fd5b833567ffffffffffffffff80821115611c54575f80fd5b611c6087838801611ba2565b94506020860135915080821115611c75575f80fd5b50611c8286828701611ba2565b925050604084013590509250925092565b5f8060408385031215611ca4575f80fd5b82359150602083013560ff81168114611cbb575f80fd5b809150509250929050565b80356001600160a01b0381168114611cdc575f80fd5b919050565b5f60208284031215611cf1575f80fd5b611cfa82611cc6565b9392505050565b5f8060408385031215611d12575f80fd5b611d1b83611cc6565b915060208301358015158114611cbb575f80fd5b5f8060408385031215611d40575f80fd5b82359150611d5060208401611cc6565b90509250929050565b600181811c90821680611d6d57607f821691505b602082108103611d8b57634e487b7160e01b5f52602260045260245ffd5b50919050565b634e487b7160e01b5f52601160045260245ffd5b5f60018201611db657611db6611d91565b5060010190565b8082018082111561119557611195611d91565b601f821115611e1457805f5260205f20601f840160051c81016020851015611df55750805b601f840160051c820191505b818110156113cd575f8155600101611e01565b505050565b815167ffffffffffffffff811115611e3357611e33611b8e565b611e4781611e418454611d59565b84611dd0565b602080601f831160018114611e7a575f8415611e635750858301515b5f19600386901b1c1916600185901b1785556113cb565b5f85815260208120601f198616915b82811015611ea857888601518255948401946001909101908401611e89565b5085821015611ec557878501515f19600388901b60f8161c191681555b5050505050600190811b01905550565b606081525f611ee76060830186611a8b565b60208301949094525060400152919050565b60208082526010908201526f125b9d985b1a59081c1c9bdc1bdcd85b60821b604082015260600190565b5f60208284031215611f33575f80fd5b5051919050565b808202811582820484141761119557611195611d91565b5f82611f6b57634e487b7160e01b5f52601260045260245ffd5b500490565b602081016111958284611ae256fed6b3a81dd8b7dc419d8d0f20797397ea2eaba914386b89898aa638438803a1eca2646970667358221220bd0d83b99ec92197726f9da4cabcbf95476af82f62a73836fb65b0200ff91b9864736f6c63430008180033",
  "linkReferences": {},
  "deployedLinkReferences": {},
  "immutableReferences": {},
  "inputSourceName": "project/contracts/MeshGovernance.sol",
  "buildInfoId": "solc-0_8_24-78062bd92b65c74316654e42be72138d528268b1"
}